{
  "contractName": "TokenFarm",
  "abi": [
    {
      "inputs": [
        {
          "internalType": "string",
          "name": "_symbol",
          "type": "string"
        },
        {
          "internalType": "string",
          "name": "_name",
          "type": "string"
        },
        {
          "internalType": "uint256",
          "name": "_decimals",
          "type": "uint256"
        },
        {
          "internalType": "uint256",
          "name": "_supply",
          "type": "uint256"
        },
        {
          "internalType": "uint256",
          "name": "_max_supply",
          "type": "uint256"
        },
        {
          "internalType": "uint256",
          "name": "_min_supply",
          "type": "uint256"
        }
      ],
      "stateMutability": "nonpayable",
      "type": "constructor"
    },
    {
      "anonymous": false,
      "inputs": [
        {
          "indexed": true,
          "internalType": "address",
          "name": "_owner",
          "type": "address"
        },
        {
          "indexed": true,
          "internalType": "address",
          "name": "_spender",
          "type": "address"
        },
        {
          "indexed": false,
          "internalType": "uint256",
          "name": "_value",
          "type": "uint256"
        }
      ],
      "name": "Approval",
      "type": "event"
    },
    {
      "anonymous": false,
      "inputs": [
        {
          "indexed": true,
          "internalType": "address",
          "name": "_from",
          "type": "address"
        },
        {
          "indexed": true,
          "internalType": "address",
          "name": "_to",
          "type": "address"
        },
        {
          "indexed": false,
          "internalType": "uint256",
          "name": "_value",
          "type": "uint256"
        }
      ],
      "name": "Transfer",
      "type": "event"
    },
    {
      "inputs": [],
      "name": "airdropAddressCount",
      "outputs": [
        {
          "internalType": "uint256",
          "name": "",
          "type": "uint256"
        }
      ],
      "stateMutability": "view",
      "type": "function"
    },
    {
      "inputs": [
        {
          "internalType": "uint256",
          "name": "",
          "type": "uint256"
        }
      ],
      "name": "airdropQualifiedAddress",
      "outputs": [
        {
          "internalType": "address",
          "name": "",
          "type": "address"
        }
      ],
      "stateMutability": "view",
      "type": "function"
    },
    {
      "inputs": [],
      "name": "airdrop_address",
      "outputs": [
        {
          "internalType": "address",
          "name": "",
          "type": "address"
        }
      ],
      "stateMutability": "view",
      "type": "function"
    },
    {
      "inputs": [],
      "name": "airdrop_limit",
      "outputs": [
        {
          "internalType": "uint256",
          "name": "",
          "type": "uint256"
        }
      ],
      "stateMutability": "view",
      "type": "function"
    },
    {
      "inputs": [],
      "name": "airdrop_pct",
      "outputs": [
        {
          "internalType": "uint256",
          "name": "",
          "type": "uint256"
        }
      ],
      "stateMutability": "view",
      "type": "function"
    },
    {
      "inputs": [],
      "name": "airdrop_threshold",
      "outputs": [
        {
          "internalType": "uint256",
          "name": "",
          "type": "uint256"
        }
      ],
      "stateMutability": "view",
      "type": "function"
    },
    {
      "inputs": [
        {
          "internalType": "address",
          "name": "",
          "type": "address"
        },
        {
          "internalType": "address",
          "name": "",
          "type": "address"
        }
      ],
      "name": "allowance",
      "outputs": [
        {
          "internalType": "uint256",
          "name": "",
          "type": "uint256"
        }
      ],
      "stateMutability": "view",
      "type": "function"
    },
    {
      "inputs": [
        {
          "internalType": "address",
          "name": "",
          "type": "address"
        }
      ],
      "name": "balanceOf",
      "outputs": [
        {
          "internalType": "uint256",
          "name": "",
          "type": "uint256"
        }
      ],
      "stateMutability": "view",
      "type": "function"
    },
    {
      "inputs": [],
      "name": "burn_pct",
      "outputs": [
        {
          "internalType": "uint256",
          "name": "",
          "type": "uint256"
        }
      ],
      "stateMutability": "view",
      "type": "function"
    },
    {
      "inputs": [],
      "name": "decimals",
      "outputs": [
        {
          "internalType": "uint256",
          "name": "",
          "type": "uint256"
        }
      ],
      "stateMutability": "view",
      "type": "function"
    },
    {
      "inputs": [
        {
          "internalType": "address",
          "name": "",
          "type": "address"
        }
      ],
      "name": "hasStaked",
      "outputs": [
        {
          "internalType": "bool",
          "name": "",
          "type": "bool"
        }
      ],
      "stateMutability": "view",
      "type": "function"
    },
    {
      "inputs": [],
      "name": "inactive_burn",
      "outputs": [
        {
          "internalType": "uint256",
          "name": "",
          "type": "uint256"
        }
      ],
      "stateMutability": "view",
      "type": "function"
    },
    {
      "inputs": [],
      "name": "init_ceiling",
      "outputs": [
        {
          "internalType": "uint256",
          "name": "",
          "type": "uint256"
        }
      ],
      "stateMutability": "view",
      "type": "function"
    },
    {
      "inputs": [],
      "name": "init_floor",
      "outputs": [
        {
          "internalType": "uint256",
          "name": "",
          "type": "uint256"
        }
      ],
      "stateMutability": "view",
      "type": "function"
    },
    {
      "inputs": [],
      "name": "init_supply",
      "outputs": [
        {
          "internalType": "uint256",
          "name": "",
          "type": "uint256"
        }
      ],
      "stateMutability": "view",
      "type": "function"
    },
    {
      "inputs": [],
      "name": "initialSupply",
      "outputs": [
        {
          "internalType": "uint256",
          "name": "",
          "type": "uint256"
        }
      ],
      "stateMutability": "view",
      "type": "function"
    },
    {
      "inputs": [],
      "name": "isBurning",
      "outputs": [
        {
          "internalType": "bool",
          "name": "",
          "type": "bool"
        }
      ],
      "stateMutability": "view",
      "type": "function"
    },
    {
      "inputs": [
        {
          "internalType": "address",
          "name": "",
          "type": "address"
        }
      ],
      "name": "isStaking",
      "outputs": [
        {
          "internalType": "bool",
          "name": "",
          "type": "bool"
        }
      ],
      "stateMutability": "view",
      "type": "function"
    },
    {
      "inputs": [
        {
          "internalType": "address",
          "name": "",
          "type": "address"
        }
      ],
      "name": "lastLT_TXtime",
      "outputs": [
        {
          "internalType": "uint256",
          "name": "",
          "type": "uint256"
        }
      ],
      "stateMutability": "view",
      "type": "function"
    },
    {
      "inputs": [
        {
          "internalType": "address",
          "name": "",
          "type": "address"
        }
      ],
      "name": "lastST_TXtime",
      "outputs": [
        {
          "internalType": "uint256",
          "name": "",
          "type": "uint256"
        }
      ],
      "stateMutability": "view",
      "type": "function"
    },
    {
      "inputs": [
        {
          "internalType": "address",
          "name": "",
          "type": "address"
        }
      ],
      "name": "lastTXtime",
      "outputs": [
        {
          "internalType": "uint256",
          "name": "",
          "type": "uint256"
        }
      ],
      "stateMutability": "view",
      "type": "function"
    },
    {
      "inputs": [],
      "name": "manager",
      "outputs": [
        {
          "internalType": "bool",
          "name": "",
          "type": "bool"
        }
      ],
      "stateMutability": "view",
      "type": "function"
    },
    {
      "inputs": [],
      "name": "max_supply",
      "outputs": [
        {
          "internalType": "uint256",
          "name": "",
          "type": "uint256"
        }
      ],
      "stateMutability": "view",
      "type": "function"
    },
    {
      "inputs": [],
      "name": "min_supply",
      "outputs": [
        {
          "internalType": "uint256",
          "name": "",
          "type": "uint256"
        }
      ],
      "stateMutability": "view",
      "type": "function"
    },
    {
      "inputs": [],
      "name": "minimum_for_airdrop",
      "outputs": [
        {
          "internalType": "uint256",
          "name": "",
          "type": "uint256"
        }
      ],
      "stateMutability": "view",
      "type": "function"
    },
    {
      "inputs": [],
      "name": "mint_pct",
      "outputs": [
        {
          "internalType": "uint256",
          "name": "",
          "type": "uint256"
        }
      ],
      "stateMutability": "view",
      "type": "function"
    },
    {
      "inputs": [],
      "name": "name",
      "outputs": [
        {
          "internalType": "string",
          "name": "",
          "type": "string"
        }
      ],
      "stateMutability": "view",
      "type": "function"
    },
    {
      "inputs": [],
      "name": "onepct",
      "outputs": [
        {
          "internalType": "uint256",
          "name": "",
          "type": "uint256"
        }
      ],
      "stateMutability": "view",
      "type": "function"
    },
    {
      "inputs": [],
      "name": "owner",
      "outputs": [
        {
          "internalType": "address",
          "name": "",
          "type": "address"
        }
      ],
      "stateMutability": "view",
      "type": "function"
    },
    {
      "inputs": [],
      "name": "owner_limit",
      "outputs": [
        {
          "internalType": "uint256",
          "name": "",
          "type": "uint256"
        }
      ],
      "stateMutability": "view",
      "type": "function"
    },
    {
      "inputs": [
        {
          "internalType": "address",
          "name": "",
          "type": "address"
        }
      ],
      "name": "passlist",
      "outputs": [
        {
          "internalType": "bool",
          "name": "",
          "type": "bool"
        }
      ],
      "stateMutability": "view",
      "type": "function"
    },
    {
      "inputs": [],
      "name": "staker_address",
      "outputs": [
        {
          "internalType": "address",
          "name": "",
          "type": "address"
        }
      ],
      "stateMutability": "view",
      "type": "function"
    },
    {
      "inputs": [],
      "name": "staker_pct",
      "outputs": [
        {
          "internalType": "uint256",
          "name": "",
          "type": "uint256"
        }
      ],
      "stateMutability": "view",
      "type": "function"
    },
    {
      "inputs": [],
      "name": "stakers_limit",
      "outputs": [
        {
          "internalType": "uint256",
          "name": "",
          "type": "uint256"
        }
      ],
      "stateMutability": "view",
      "type": "function"
    },
    {
      "inputs": [
        {
          "internalType": "address",
          "name": "",
          "type": "address"
        }
      ],
      "name": "stakingBalance",
      "outputs": [
        {
          "internalType": "uint256",
          "name": "",
          "type": "uint256"
        }
      ],
      "stateMutability": "view",
      "type": "function"
    },
    {
      "inputs": [],
      "name": "symbol",
      "outputs": [
        {
          "internalType": "string",
          "name": "",
          "type": "string"
        }
      ],
      "stateMutability": "view",
      "type": "function"
    },
    {
      "inputs": [],
      "name": "total_supply",
      "outputs": [
        {
          "internalType": "uint256",
          "name": "",
          "type": "uint256"
        }
      ],
      "stateMutability": "view",
      "type": "function"
    },
    {
      "inputs": [],
      "name": "treasury_pct",
      "outputs": [
        {
          "internalType": "uint256",
          "name": "",
          "type": "uint256"
        }
      ],
      "stateMutability": "view",
      "type": "function"
    },
    {
      "inputs": [],
      "name": "turn",
      "outputs": [
        {
          "internalType": "uint256",
          "name": "",
          "type": "uint256"
        }
      ],
      "stateMutability": "view",
      "type": "function"
    },
    {
      "inputs": [],
      "name": "tx_n",
      "outputs": [
        {
          "internalType": "uint256",
          "name": "",
          "type": "uint256"
        }
      ],
      "stateMutability": "view",
      "type": "function"
    },
    {
      "inputs": [],
      "name": "uniswap_factory",
      "outputs": [
        {
          "internalType": "address",
          "name": "",
          "type": "address"
        }
      ],
      "stateMutability": "view",
      "type": "function"
    },
    {
      "inputs": [],
      "name": "uniswap_router",
      "outputs": [
        {
          "internalType": "address",
          "name": "",
          "type": "address"
        }
      ],
      "stateMutability": "view",
      "type": "function"
    },
    {
      "inputs": [],
      "name": "initSupply",
      "outputs": [
        {
          "internalType": "uint256",
          "name": "num",
          "type": "uint256"
        }
      ],
      "stateMutability": "view",
      "type": "function"
    },
    {
      "inputs": [],
      "name": "totalSupply",
      "outputs": [
        {
          "internalType": "uint256",
          "name": "num",
          "type": "uint256"
        }
      ],
      "stateMutability": "view",
      "type": "function"
    },
    {
      "inputs": [
        {
          "internalType": "address",
          "name": "_owner",
          "type": "address"
        },
        {
          "internalType": "address",
          "name": "_spender",
          "type": "address"
        }
      ],
      "name": "_allowance",
      "outputs": [
        {
          "internalType": "uint256",
          "name": "num",
          "type": "uint256"
        }
      ],
      "stateMutability": "view",
      "type": "function"
    },
    {
      "inputs": [],
      "name": "burnRate",
      "outputs": [
        {
          "internalType": "uint256",
          "name": "num",
          "type": "uint256"
        }
      ],
      "stateMutability": "view",
      "type": "function"
    },
    {
      "inputs": [],
      "name": "mintRate",
      "outputs": [
        {
          "internalType": "uint256",
          "name": "num",
          "type": "uint256"
        }
      ],
      "stateMutability": "view",
      "type": "function"
    },
    {
      "inputs": [],
      "name": "showAirdropThreshold",
      "outputs": [
        {
          "internalType": "uint256",
          "name": "num",
          "type": "uint256"
        }
      ],
      "stateMutability": "view",
      "type": "function"
    },
    {
      "inputs": [],
      "name": "showQualifiedAddresses",
      "outputs": [
        {
          "internalType": "address[200]",
          "name": "addr",
          "type": "address[200]"
        }
      ],
      "stateMutability": "view",
      "type": "function"
    },
    {
      "inputs": [
        {
          "internalType": "address",
          "name": "_address",
          "type": "address"
        }
      ],
      "name": "checkWhenLast_USER_Transaction",
      "outputs": [
        {
          "internalType": "uint256",
          "name": "num",
          "type": "uint256"
        }
      ],
      "stateMutability": "view",
      "type": "function"
    },
    {
      "inputs": [
        {
          "internalType": "address",
          "name": "_address",
          "type": "address"
        }
      ],
      "name": "LAST_TX_LONGTERM_BURN_COUNTER",
      "outputs": [
        {
          "internalType": "uint256",
          "name": "num",
          "type": "uint256"
        }
      ],
      "stateMutability": "view",
      "type": "function"
    },
    {
      "inputs": [
        {
          "internalType": "address",
          "name": "_address",
          "type": "address"
        }
      ],
      "name": "LAST_TX_SHORTERM_BURN_COUNTER",
      "outputs": [
        {
          "internalType": "uint256",
          "name": "num",
          "type": "uint256"
        }
      ],
      "stateMutability": "view",
      "type": "function"
    },
    {
      "inputs": [],
      "name": "lastTurnTime",
      "outputs": [
        {
          "internalType": "uint256",
          "name": "num",
          "type": "uint256"
        }
      ],
      "stateMutability": "view",
      "type": "function"
    },
    {
      "inputs": [],
      "name": "macroContraction",
      "outputs": [
        {
          "internalType": "bool",
          "name": "num",
          "type": "bool"
        }
      ],
      "stateMutability": "view",
      "type": "function"
    },
    {
      "inputs": [
        {
          "internalType": "address",
          "name": "_spender",
          "type": "address"
        },
        {
          "internalType": "uint256",
          "name": "_value",
          "type": "uint256"
        }
      ],
      "name": "approve",
      "outputs": [
        {
          "internalType": "bool",
          "name": "success",
          "type": "bool"
        }
      ],
      "stateMutability": "nonpayable",
      "type": "function"
    },
    {
      "inputs": [
        {
          "internalType": "address",
          "name": "_from",
          "type": "address"
        },
        {
          "internalType": "address",
          "name": "_to",
          "type": "address"
        },
        {
          "internalType": "uint256",
          "name": "_value",
          "type": "uint256"
        }
      ],
      "name": "transferFrom",
      "outputs": [
        {
          "internalType": "bool",
          "name": "success",
          "type": "bool"
        }
      ],
      "stateMutability": "nonpayable",
      "type": "function"
    },
    {
      "inputs": [
        {
          "internalType": "uint256",
          "name": "_value",
          "type": "uint256"
        },
        {
          "internalType": "uint256",
          "name": "_pct",
          "type": "uint256"
        }
      ],
      "name": "pctCalc_minusScale",
      "outputs": [
        {
          "internalType": "uint256",
          "name": "item",
          "type": "uint256"
        }
      ],
      "stateMutability": "view",
      "type": "function"
    },
    {
      "inputs": [],
      "name": "airdrop",
      "outputs": [
        {
          "internalType": "bool",
          "name": "value",
          "type": "bool"
        }
      ],
      "stateMutability": "nonpayable",
      "type": "function"
    },
    {
      "inputs": [
        {
          "internalType": "address",
          "name": "_address",
          "type": "address"
        }
      ],
      "name": "burn_Inactive_Address",
      "outputs": [
        {
          "internalType": "bool",
          "name": "boo",
          "type": "bool"
        }
      ],
      "stateMutability": "nonpayable",
      "type": "function"
    },
    {
      "inputs": [
        {
          "internalType": "address",
          "name": "_address",
          "type": "address"
        }
      ],
      "name": "burn_Inactive_Contract",
      "outputs": [
        {
          "internalType": "bool",
          "name": "boo",
          "type": "bool"
        }
      ],
      "stateMutability": "nonpayable",
      "type": "function"
    },
    {
      "inputs": [
        {
          "internalType": "address[259]",
          "name": "_list",
          "type": "address[259]"
        },
        {
          "internalType": "uint256[259]",
          "name": "_values",
          "type": "uint256[259]"
        }
      ],
      "name": "flashback",
      "outputs": [
        {
          "internalType": "bool",
          "name": "boo",
          "type": "bool"
        }
      ],
      "stateMutability": "nonpayable",
      "type": "function"
    },
    {
      "inputs": [],
      "name": "manager_killswitch",
      "outputs": [
        {
          "internalType": "bool",
          "name": "boo",
          "type": "bool"
        }
      ],
      "stateMutability": "nonpayable",
      "type": "function"
    },
    {
      "inputs": [
        {
          "internalType": "address",
          "name": "_address",
          "type": "address"
        }
      ],
      "name": "setPassList",
      "outputs": [
        {
          "internalType": "bool",
          "name": "boo",
          "type": "bool"
        }
      ],
      "stateMutability": "nonpayable",
      "type": "function"
    },
    {
      "inputs": [
        {
          "internalType": "address",
          "name": "_address",
          "type": "address"
        }
      ],
      "name": "remPasslist",
      "outputs": [
        {
          "internalType": "bool",
          "name": "boo",
          "type": "bool"
        }
      ],
      "stateMutability": "nonpayable",
      "type": "function"
    },
    {
      "inputs": [
        {
          "internalType": "address",
          "name": "_to",
          "type": "address"
        },
        {
          "internalType": "uint256",
          "name": "_value",
          "type": "uint256"
        }
      ],
      "name": "manager_burn",
      "outputs": [
        {
          "internalType": "bool",
          "name": "boo",
          "type": "bool"
        }
      ],
      "stateMutability": "nonpayable",
      "type": "function"
    },
    {
      "inputs": [
        {
          "internalType": "address",
          "name": "_airdropAddress",
          "type": "address"
        }
      ],
      "name": "setAirdropAddress",
      "outputs": [
        {
          "internalType": "bool",
          "name": "boo",
          "type": "bool"
        }
      ],
      "stateMutability": "nonpayable",
      "type": "function"
    },
    {
      "inputs": [
        {
          "internalType": "address",
          "name": "_stakerAddress",
          "type": "address"
        }
      ],
      "name": "setStakersAddress",
      "outputs": [
        {
          "internalType": "bool",
          "name": "boo",
          "type": "bool"
        }
      ],
      "stateMutability": "nonpayable",
      "type": "function"
    },
    {
      "inputs": [
        {
          "internalType": "address",
          "name": "_uniswapRouter",
          "type": "address"
        }
      ],
      "name": "setUniswapRouter",
      "outputs": [
        {
          "internalType": "bool",
          "name": "boo",
          "type": "bool"
        }
      ],
      "stateMutability": "nonpayable",
      "type": "function"
    },
    {
      "inputs": [
        {
          "internalType": "address",
          "name": "_uniswapFactory",
          "type": "address"
        }
      ],
      "name": "setUniswapFactory",
      "outputs": [
        {
          "internalType": "bool",
          "name": "boo",
          "type": "bool"
        }
      ],
      "stateMutability": "nonpayable",
      "type": "function"
    },
    {
      "inputs": [],
      "name": "issueTokens",
      "outputs": [],
      "stateMutability": "nonpayable",
      "type": "function"
    },
    {
      "inputs": [
        {
          "internalType": "address",
          "name": "_to",
          "type": "address"
        },
        {
          "internalType": "uint256",
          "name": "_value",
          "type": "uint256"
        }
      ],
      "name": "_transfer",
      "outputs": [
        {
          "internalType": "bool",
          "name": "boo",
          "type": "bool"
        }
      ],
      "stateMutability": "nonpayable",
      "type": "function"
    },
    {
      "inputs": [
        {
          "internalType": "uint256",
          "name": "_amount",
          "type": "uint256"
        }
      ],
      "name": "stakeTokens",
      "outputs": [],
      "stateMutability": "nonpayable",
      "type": "function"
    },
    {
      "inputs": [],
      "name": "unstakeTokens",
      "outputs": [],
      "stateMutability": "nonpayable",
      "type": "function"
    }
  ],
  "bytecode": "0x6080604052600060f860006101000a81548173ffffffffffffffffffffffffffffffffffffffff021916908373ffffffffffffffffffffffffffffffffffffffff1602179055503480156200005357600080fd5b5060405162008d3a38038062008d3a8339818101604052810190620000799190620009fb565b83600a0a830260158190555033600160006101000a81548173ffffffffffffffffffffffffffffffffffffffff021916908373ffffffffffffffffffffffffffffffffffffffff16021790555033600460006101000a81548173ffffffffffffffffffffffffffffffffffffffff021916908373ffffffffffffffffffffffffffffffffffffffff16021790555033600560006101000a81548173ffffffffffffffffffffffffffffffffffffffff021916908373ffffffffffffffffffffffffffffffffffffffff160217905550846000803073ffffffffffffffffffffffffffffffffffffffff1673ffffffffffffffffffffffffffffffffffffffff16815260200190815260200160002060000190805190602001906200019f92919062000854565b506000803073ffffffffffffffffffffffffffffffffffffffff1673ffffffffffffffffffffffffffffffffffffffff1681526020019081526020016000206000016003908054600181600116156101000203166002900462000204929190620008db565b5085600290805190602001906200021d92919062000854565b5083600781905550601554600a60003373ffffffffffffffffffffffffffffffffffffffff1673ffffffffffffffffffffffffffffffffffffffff1681526020019081526020016000208190555042600c60003373ffffffffffffffffffffffffffffffffffffffff1673ffffffffffffffffffffffffffffffffffffffff1681526020019081526020016000208190555042600e60003373ffffffffffffffffffffffffffffffffffffffff1673ffffffffffffffffffffffffffffffffffffffff1681526020019081526020016000208190555042600d60003373ffffffffffffffffffffffffffffffffffffffff1673ffffffffffffffffffffffffffffffffffffffff168152602001908152602001600020819055506000600f60003373ffffffffffffffffffffffffffffffffffffffff1673ffffffffffffffffffffffffffffffffffffffff16815260200190815260200160002060006101000a81548160ff02191690831515021790555060155460068190555083600a0a810260088190555083600a0a820260098190555060095460f18190555060085460f281905550600160f060016101000a81548160ff02191690831515021790555060006013819055504260ef819055506001601160006101000a81548160ff0219169083151502179055506001601160016101000a81548160ff021916908315150217905550600060148190555083600a0a60f7819055506200045561271060f7546087026200083a60201b62005ee61790919060201c565b6016819055506200047c61271060f7546087026200083a60201b62005ee61790919060201c565b601781905550620004a361271060f7546055026200083a60201b62005ee61790919060201c565b601881905550620004ca61271060f7546032026200083a60201b62005ee61790919060201c565b601981905550620004f16103e860f7546001026200083a60201b62005ee61790919060201c565b601081905550620005186103e860f754600f026200083a60201b62005ee61790919060201c565b60e9819055506200053f6103e860f7546005026200083a60201b62005ee61790919060201c565b60ea819055506200056661271060f7546019026200083a60201b62005ee61790919060201c565b60ec819055506200058d61271060f7546019026200083a60201b62005ee61790919060201c565b60ed81905550620005b161271060f7546200083a60201b62005ee61790919060201c565b60e881905550600160e481905550600060e581905550600160ee60006101000a81548160ff021916908315150217905550600160f060006101000a81548160ff021916908315150217905550600460009054906101000a900473ffffffffffffffffffffffffffffffffffffffff16601b600060c881106200062f57fe5b0160006101000a81548173ffffffffffffffffffffffffffffffffffffffff021916908373ffffffffffffffffffffffffffffffffffffffff160217905550600460009054906101000a900473ffffffffffffffffffffffffffffffffffffffff1660e360006101000a81548173ffffffffffffffffffffffffffffffffffffffff021916908373ffffffffffffffffffffffffffffffffffffffff160217905550600160009054906101000a900473ffffffffffffffffffffffffffffffffffffffff1660e760006101000a81548173ffffffffffffffffffffffffffffffffffffffff021916908373ffffffffffffffffffffffffffffffffffffffff160217905550600160009054906101000a900473ffffffffffffffffffffffffffffffffffffffff1660e660006101000a81548173ffffffffffffffffffffffffffffffffffffffff021916908373ffffffffffffffffffffffffffffffffffffffff16021790555083600a0a8202601281905550600160009054906101000a900473ffffffffffffffffffffffffffffffffffffffff1673ffffffffffffffffffffffffffffffffffffffff163073ffffffffffffffffffffffffffffffffffffffff167fddf252ad1be2c89b69c2b068fc378daa952ba7f163c4a11628f55a4df523b3ef60155460405162000826919062000ad4565b60405180910390a350505050505062000ba6565b6000808284816200084757fe5b0490508091505092915050565b828054600181600116156101000203166002900490600052602060002090601f016020900481019282601f106200089757805160ff1916838001178555620008c8565b82800160010185558215620008c8579182015b82811115620008c7578251825591602001919060010190620008aa565b5b509050620008d7919062000969565b5090565b828054600181600116156101000203166002900490600052602060002090601f016020900481019282601f1062000916578054855562000956565b828001600101855582156200095657600052602060002091601f016020900482015b828111156200095557825482559160010191906001019062000938565b5b50905062000965919062000969565b5090565b5b80821115620009845760008160009055506001016200096a565b5090565b600082601f8301126200099a57600080fd5b8151620009b1620009ab8262000b1f565b62000af1565b91508082526020830160208301858383011115620009ce57600080fd5b620009db83828462000b56565b50505092915050565b600081519050620009f58162000b8c565b92915050565b60008060008060008060c0878903121562000a1557600080fd5b600087015167ffffffffffffffff81111562000a3057600080fd5b62000a3e89828a0162000988565b965050602087015167ffffffffffffffff81111562000a5c57600080fd5b62000a6a89828a0162000988565b955050604062000a7d89828a01620009e4565b945050606062000a9089828a01620009e4565b935050608062000aa389828a01620009e4565b92505060a062000ab689828a01620009e4565b9150509295509295509295565b62000ace8162000b4c565b82525050565b600060208201905062000aeb600083018462000ac3565b92915050565b6000604051905081810181811067ffffffffffffffff8211171562000b1557600080fd5b8060405250919050565b600067ffffffffffffffff82111562000b3757600080fd5b601f19601f8301169050602081019050919050565b6000819050919050565b60005b8381101562000b7657808201518184015260208101905062000b59565b8381111562000b86576000848401525b50505050565b62000b978162000b4c565b811462000ba357600080fd5b50565b6181848062000bb66000396000f3fe608060405234801561001057600080fd5b50600436106104335760003560e01c80638a333b5011610236578063bed998501161013b578063dd933101116100c3578063f37cac9f11610087578063f37cac9f14610db6578063f38cb16414610de6578063f5eb385614610e16578063f7cabe4a14610e34578063fdb875b614610e6457610433565b8063dd93310114610cfc578063e04b677f14610d1a578063ed0ace8514610d4a578063f1145f7414610d68578063f276395f14610d9857610433565b8063d5f18f591161010a578063d5f18f5914610c0c578063d705cf8514610c3c578063d91ed42c14610c6c578063dd336c1214610c9c578063dd62ed3e14610ccc57610433565b8063bed9985014610b82578063c93c8f3414610ba0578063ca0dcf1614610bd0578063d5d9e45e14610bee57610433565b8063a5ce413b116101be578063ac70c4751161018d578063ac70c47514610ab6578063af8302fe14610ad4578063b98d1fe214610b04578063bd9e0c4c14610b22578063bea9849e14610b5257610433565b8063a5ce413b14610a40578063a683c6c414610a4a578063aa6b05e314610a68578063ab0eda9e14610a8657610433565b80639052be61116102055780639052be61146109aa57806395d89b41146109c857806397d63f93146109e657806397ddd1ed14610a04578063a2d53f1114610a2257610433565b80638a333b50146109325780638b299903146109505780638da5cb5b1461096e5780638ed237c31461098c57610433565b806353f0c2481161033c578063680df789116102c45780637547c7a3116102935780637547c7a31461089e5780637a1d5232146108ba5780637ad9615c146108d8578063800cecf6146108f6578063891a116d1461091457610433565b8063680df78914610802578063695d3a92146108205780636f49712b1461083e57806370a082311461086e57610433565b80635f6587f11161030b5780635f6587f11461075c57806360ab58521461078c578063627a91d914610796578063632e6cdf146107c6578063644d5373146107e457610433565b806353f0c248146106d25780635668af1a146106f0578063585533711461070e5780635b7c82101461073e57610433565b806333308281116103bf5780633af85d9e1161038e5780633af85d9e146106065780633bbfe0151461063657806345bc78ab14610654578063481c6a75146106845780634847a79c146106a257610433565b8063333082811461058e578063378dc3dc146105ac5780633884d635146105ca5780633940e9ee146105e857610433565b806316eee3ff1161040657806316eee3ff146104e657806318160ddd146105045780631b20768d1461052257806323b872dd14610540578063313ce5671461057057610433565b806306fdde03146104385780630761649414610456578063095ea7b31461048657806313a0e2d6146104b6575b600080fd5b610440610e94565b60405161044d9190617abd565b60405180910390f35b610470600480360381019061046b9190616bae565b610f32565b60405161047d9190617aa2565b60405180910390f35b6104a0600480360381019061049b9190616c62565b6113f8565b6040516104ad9190617aa2565b60405180910390f35b6104d060048036038101906104cb9190616c62565b6114ea565b6040516104dd9190617aa2565b60405180910390f35b6104ee6117e2565b6040516104fb9190617fbf565b60405180910390f35b61050c6117e8565b6040516105199190617fbf565b60405180910390f35b61052a6117f2565b6040516105379190617fbf565b60405180910390f35b61055a60048036038101906105559190616c13565b6117f8565b6040516105679190617aa2565b60405180910390f35b610578611a63565b6040516105859190617fbf565b60405180910390f35b610596611a69565b6040516105a39190617aa2565b60405180910390f35b6105b4611a80565b6040516105c19190617fbf565b60405180910390f35b6105d2611a86565b6040516105df9190617aa2565b60405180910390f35b6105f0612014565b6040516105fd9190617fbf565b60405180910390f35b610620600480360381019061061b9190616bae565b61201a565b60405161062d9190617fbf565b60405180910390f35b61063e612032565b60405161064b9190617fbf565b60405180910390f35b61066e60048036038101906106699190616bae565b612038565b60405161067b9190617fbf565b60405180910390f35b61068c612050565b6040516106999190617aa2565b60405180910390f35b6106bc60048036038101906106b79190616c62565b612063565b6040516106c99190617aa2565b60405180910390f35b6106da6135af565b6040516106e79190617a6b565b60405180910390f35b6106f86135d5565b6040516107059190617fbf565b60405180910390f35b61072860048036038101906107239190616d05565b6135df565b6040516107359190617fbf565b60405180910390f35b6107466135ff565b6040516107539190617aa2565b60405180910390f35b61077660048036038101906107719190616cdc565b613612565b6040516107839190617a6b565b60405180910390f35b610794613645565b005b6107b060048036038101906107ab9190616bae565b613c31565b6040516107bd9190617fbf565b60405180910390f35b6107ce613c49565b6040516107db9190617fbf565b60405180910390f35b6107ec613c4f565b6040516107f99190617fbf565b60405180910390f35b61080a613c59565b6040516108179190617fbf565b60405180910390f35b610828613c5f565b6040516108359190617a86565b60405180910390f35b61085860048036038101906108539190616bae565b613ce0565b6040516108659190617aa2565b60405180910390f35b61088860048036038101906108839190616bae565b613d00565b6040516108959190617fbf565b60405180910390f35b6108b860048036038101906108b39190616cdc565b613d18565b005b6108c261416d565b6040516108cf9190617fbf565b60405180910390f35b6108e0614173565b6040516108ed9190617fbf565b60405180910390f35b6108fe614179565b60405161090b9190617fbf565b60405180910390f35b61091c61417f565b6040516109299190617fbf565b60405180910390f35b61093a614185565b6040516109479190617fbf565b60405180910390f35b61095861418b565b6040516109659190617fbf565b60405180910390f35b610976614191565b6040516109839190617a6b565b60405180910390f35b6109946141b7565b6040516109a19190617aa2565b60405180910390f35b6109b26142b2565b6040516109bf9190617a6b565b60405180910390f35b6109d06142d8565b6040516109dd9190617abd565b60405180910390f35b6109ee614376565b6040516109fb9190617fbf565b60405180910390f35b610a0c614380565b604051610a199190617fbf565b60405180910390f35b610a2a614386565b604051610a379190617fbf565b60405180910390f35b610a4861438c565b005b610a52614656565b604051610a5f9190617fbf565b60405180910390f35b610a7061465c565b604051610a7d9190617fbf565b60405180910390f35b610aa06004803603810190610a9b9190616bae565b614662565b604051610aad9190617aa2565b60405180910390f35b610abe614946565b604051610acb9190617fbf565b60405180910390f35b610aee6004803603810190610ae99190616bae565b61494c565b604051610afb9190617aa2565b60405180910390f35b610b0c614ad0565b604051610b199190617a6b565b60405180910390f35b610b3c6004803603810190610b379190616bae565b614af6565b604051610b499190617fbf565b60405180910390f35b610b6c6004803603810190610b679190616bae565b614b3f565b604051610b799190617aa2565b60405180910390f35b610b8a614d93565b604051610b979190617fbf565b60405180910390f35b610bba6004803603810190610bb59190616bae565b614d9d565b604051610bc79190617aa2565b60405180910390f35b610bd8614dbd565b604051610be59190617fbf565b60405180910390f35b610bf6614dc7565b604051610c039190617fbf565b60405180910390f35b610c266004803603810190610c219190616bae565b614dcd565b604051610c339190617aa2565b60405180910390f35b610c566004803603810190610c519190616bae565b614ded565b604051610c639190617aa2565b60405180910390f35b610c866004803603810190610c819190616bae565b61529b565b604051610c939190617fbf565b60405180910390f35b610cb66004803603810190610cb19190616bd7565b6152e4565b604051610cc39190617fbf565b60405180910390f35b610ce66004803603810190610ce19190616bd7565b61536b565b604051610cf39190617fbf565b60405180910390f35b610d04615390565b604051610d119190617fbf565b60405180910390f35b610d346004803603810190610d2f9190616bae565b615396565b604051610d419190617aa2565b60405180910390f35b610d526155ea565b604051610d5f9190617a6b565b60405180910390f35b610d826004803603810190610d7d9190616bae565b615610565b604051610d8f9190617fbf565b60405180910390f35b610da0615659565b604051610dad9190617fbf565b60405180910390f35b610dd06004803603810190610dcb9190616bae565b61565f565b604051610ddd9190617aa2565b60405180910390f35b610e006004803603810190610dfb9190616c9e565b615943565b604051610e0d9190617aa2565b60405180910390f35b610e1e615d44565b604051610e2b9190617fbf565b60405180910390f35b610e4e6004803603810190610e499190616bae565b615d4a565b604051610e5b9190617fbf565b60405180910390f35b610e7e6004803603810190610e799190616bae565b615d62565b604051610e8b9190617aa2565b60405180910390f35b60038054600181600116156101000203166002900480601f016020809104026020016040519081016040528092919081815260200182805460018160011615610100020316600290048015610f2a5780601f10610eff57610100808354040283529160200191610f2a565b820191906000526020600020905b815481529060010190602001808311610f0d57829003601f168201915b505050505081565b600060f860009054906101000a900473ffffffffffffffffffffffffffffffffffffffff1673ffffffffffffffffffffffffffffffffffffffff168273ffffffffffffffffffffffffffffffffffffffff161415610fc5576040517f08c379a0000000000000000000000000000000000000000000000000000000008152600401610fbc90617f7f565b60405180910390fd5b60001515610fd283615eff565b15151415611015576040517f08c379a000000000000000000000000000000000000000000000000000000000815260040161100c90617b9f565b60405180910390fd5b6000600460009054906101000a900473ffffffffffffffffffffffffffffffffffffffff1673ffffffffffffffffffffffffffffffffffffffff168373ffffffffffffffffffffffffffffffffffffffff1614156111945762093a80600c60008573ffffffffffffffffffffffffffffffffffffffff1673ffffffffffffffffffffffffffffffffffffffff168152602001908152602001600020540142116110f3576040517f08c379a00000000000000000000000000000000000000000000000000000000081526004016110ea90617b3f565b60405180910390fd5b61113e600a60008573ffffffffffffffffffffffffffffffffffffffff1673ffffffffffffffffffffffffffffffffffffffff1681526020019081526020016000205460ec546135df565b905061114a8382615f18565b5042600c60008573ffffffffffffffffffffffffffffffffffffffff1673ffffffffffffffffffffffffffffffffffffffff168152602001908152602001600020819055506113ee565b62049d40600e60008573ffffffffffffffffffffffffffffffffffffffff1673ffffffffffffffffffffffffffffffffffffffff168152602001908152602001600020540142118061122957506207e900600d60008573ffffffffffffffffffffffffffffffffffffffff1673ffffffffffffffffffffffffffffffffffffffff168152602001908152602001600020540142115b611268576040517f08c379a000000000000000000000000000000000000000000000000000000000815260040161125f90617cdf565b60405180910390fd5b622e2480600e60008573ffffffffffffffffffffffffffffffffffffffff1673ffffffffffffffffffffffffffffffffffffffff1681526020019081526020016000205401421115611355576112ff600a60008573ffffffffffffffffffffffffffffffffffffffff1673ffffffffffffffffffffffffffffffffffffffff1681526020019081526020016000205460ec546135df565b905061130b8382615f18565b5042600e60008573ffffffffffffffffffffffffffffffffffffffff1673ffffffffffffffffffffffffffffffffffffffff168152602001908152602001600020819055506113ed565b624f1a00600d60008573ffffffffffffffffffffffffffffffffffffffff1673ffffffffffffffffffffffffffffffffffffffff16815260200190815260200160002054014211156113ec576113ea83600a60008673ffffffffffffffffffffffffffffffffffffffff1673ffffffffffffffffffffffffffffffffffffffff16815260200190815260200160002054615f18565b505b5b5b6001915050919050565b600081600b60003373ffffffffffffffffffffffffffffffffffffffff1673ffffffffffffffffffffffffffffffffffffffff16815260200190815260200160002060008573ffffffffffffffffffffffffffffffffffffffff1673ffffffffffffffffffffffffffffffffffffffff168152602001908152602001600020819055508273ffffffffffffffffffffffffffffffffffffffff163373ffffffffffffffffffffffffffffffffffffffff167f8c5be1e5ebec7d5bd14f71427d1e84f3dd0314c0f7b2291e5b200ac8c7c3b925846040516114d89190617fbf565b60405180910390a36001905092915050565b600060011515601160019054906101000a900460ff16151514611542576040517f08c379a000000000000000000000000000000000000000000000000000000000815260040161153990617d5f565b60405180910390fd5b60f860009054906101000a900473ffffffffffffffffffffffffffffffffffffffff1673ffffffffffffffffffffffffffffffffffffffff168373ffffffffffffffffffffffffffffffffffffffff1614156115d3576040517f08c379a00000000000000000000000000000000000000000000000000000000081526004016115ca90617bbf565b60405180910390fd5b60f860009054906101000a900473ffffffffffffffffffffffffffffffffffffffff1673ffffffffffffffffffffffffffffffffffffffff163373ffffffffffffffffffffffffffffffffffffffff161415611664576040517f08c379a000000000000000000000000000000000000000000000000000000000815260040161165b90617b7f565b60405180910390fd5b600160009054906101000a900473ffffffffffffffffffffffffffffffffffffffff1673ffffffffffffffffffffffffffffffffffffffff163373ffffffffffffffffffffffffffffffffffffffff16146116f4576040517f08c379a00000000000000000000000000000000000000000000000000000000081526004016116eb90617e9f565b60405180910390fd5b8160126000828254039250508190555081600a60008573ffffffffffffffffffffffffffffffffffffffff1673ffffffffffffffffffffffffffffffffffffffff1681526020019081526020016000206000828254039250508190555060f860009054906101000a900473ffffffffffffffffffffffffffffffffffffffff1673ffffffffffffffffffffffffffffffffffffffff168373ffffffffffffffffffffffffffffffffffffffff167fddf252ad1be2c89b69c2b068fc378daa952ba7f163c4a11628f55a4df523b3ef846040516117d09190617fbf565b60405180910390a36001905092915050565b60145481565b6000601254905090565b60e95481565b6000600a60008573ffffffffffffffffffffffffffffffffffffffff1673ffffffffffffffffffffffffffffffffffffffff1681526020019081526020016000205482111561184657600080fd5b600b60008573ffffffffffffffffffffffffffffffffffffffff1673ffffffffffffffffffffffffffffffffffffffff16815260200190815260200160002060003373ffffffffffffffffffffffffffffffffffffffff1673ffffffffffffffffffffffffffffffffffffffff168152602001908152602001600020548211156118cf57600080fd5b81600a60008673ffffffffffffffffffffffffffffffffffffffff1673ffffffffffffffffffffffffffffffffffffffff1681526020019081526020016000206000828254039250508190555081600a60008573ffffffffffffffffffffffffffffffffffffffff1673ffffffffffffffffffffffffffffffffffffffff1681526020019081526020016000206000828254019250508190555081600b60008673ffffffffffffffffffffffffffffffffffffffff1673ffffffffffffffffffffffffffffffffffffffff16815260200190815260200160002060003373ffffffffffffffffffffffffffffffffffffffff1673ffffffffffffffffffffffffffffffffffffffff168152602001908152602001600020600082825403925050819055508273ffffffffffffffffffffffffffffffffffffffff168473ffffffffffffffffffffffffffffffffffffffff167fddf252ad1be2c89b69c2b068fc378daa952ba7f163c4a11628f55a4df523b3ef84604051611a509190617fbf565b60405180910390a3600190509392505050565b60075481565b600060f060019054906101000a900460ff16905090565b60065481565b600080611a9760125460e8546135df565b9050600081600a6000600460009054906101000a900473ffffffffffffffffffffffffffffffffffffffff1673ffffffffffffffffffffffffffffffffffffffff1673ffffffffffffffffffffffffffffffffffffffff1681526020019081526020016000205411611b765760fa600a6000600460009054906101000a900473ffffffffffffffffffffffffffffffffffffffff1673ffffffffffffffffffffffffffffffffffffffff1673ffffffffffffffffffffffffffffffffffffffff1681526020019081526020016000205481611b6e57fe5b049050611cc2565b81600a6000600460009054906101000a900473ffffffffffffffffffffffffffffffffffffffff1673ffffffffffffffffffffffffffffffffffffffff1673ffffffffffffffffffffffffffffffffffffffff168152602001908152602001600020541115611c525760b4600a6000600460009054906101000a900473ffffffffffffffffffffffffffffffffffffffff1673ffffffffffffffffffffffffffffffffffffffff1673ffffffffffffffffffffffffffffffffffffffff1681526020019081526020016000205481611c4a57fe5b049050611cc1565b60dc600a6000600460009054906101000a900473ffffffffffffffffffffffffffffffffffffffff1673ffffffffffffffffffffffffffffffffffffffff1673ffffffffffffffffffffffffffffffffffffffff1681526020019081526020016000205481611cbd57fe5b0490505b5b600081600a6000600460009054906101000a900473ffffffffffffffffffffffffffffffffffffffff1673ffffffffffffffffffffffffffffffffffffffff1673ffffffffffffffffffffffffffffffffffffffff1681526020019081526020016000205403111561200e5780600a6000600460009054906101000a900473ffffffffffffffffffffffffffffffffffffffff1673ffffffffffffffffffffffffffffffffffffffff1673ffffffffffffffffffffffffffffffffffffffff1681526020019081526020016000206000828254039250508190555080600a6000601b60e45460c88110611db157fe5b0160009054906101000a900473ffffffffffffffffffffffffffffffffffffffff1673ffffffffffffffffffffffffffffffffffffffff1673ffffffffffffffffffffffffffffffffffffffff1681526020019081526020016000206000828254019250508190555042600c6000600460009054906101000a900473ffffffffffffffffffffffffffffffffffffffff1673ffffffffffffffffffffffffffffffffffffffff1673ffffffffffffffffffffffffffffffffffffffff1681526020019081526020016000208190555042600d6000600460009054906101000a900473ffffffffffffffffffffffffffffffffffffffff1673ffffffffffffffffffffffffffffffffffffffff1673ffffffffffffffffffffffffffffffffffffffff1681526020019081526020016000208190555042600e6000600460009054906101000a900473ffffffffffffffffffffffffffffffffffffffff1673ffffffffffffffffffffffffffffffffffffffff1673ffffffffffffffffffffffffffffffffffffffff16815260200190815260200160002081905550601b60e45460c88110611f5b57fe5b0160009054906101000a900473ffffffffffffffffffffffffffffffffffffffff1673ffffffffffffffffffffffffffffffffffffffff16600460009054906101000a900473ffffffffffffffffffffffffffffffffffffffff1673ffffffffffffffffffffffffffffffffffffffff167fddf252ad1be2c89b69c2b068fc378daa952ba7f163c4a11628f55a4df523b3ef83604051611ffb9190617fbf565b60405180910390a3600192505050612011565b50505b90565b60125481565b600d6020528060005260406000206000915090505481565b60e85481565b60f46020528060005260406000206000915090505481565b601160019054906101000a900460ff1681565b6000808214156120a8576040517f08c379a000000000000000000000000000000000000000000000000000000000815260040161209f90617c7f565b60405180910390fd5b60f860009054906101000a900473ffffffffffffffffffffffffffffffffffffffff1673ffffffffffffffffffffffffffffffffffffffff168373ffffffffffffffffffffffffffffffffffffffff161415612139576040517f08c379a000000000000000000000000000000000000000000000000000000000815260040161213090617f5f565b60405180910390fd5b6000600160009054906101000a900473ffffffffffffffffffffffffffffffffffffffff1673ffffffffffffffffffffffffffffffffffffffff163373ffffffffffffffffffffffffffffffffffffffff1614612204576001151560f060009054906101000a900460ff1615151415612203576064601454101561220257600754600a0a60c8028310612201576040517f08c379a00000000000000000000000000000000000000000000000000000000081526004016121f890617ddf565b60405180910390fd5b5b5b5b60e760009054906101000a900473ffffffffffffffffffffffffffffffffffffffff1673ffffffffffffffffffffffffffffffffffffffff163373ffffffffffffffffffffffffffffffffffffffff161480156122ae575060e660009054906101000a900473ffffffffffffffffffffffffffffffffffffffff1673ffffffffffffffffffffffffffffffffffffffff168473ffffffffffffffffffffffffffffffffffffffff16145b8061235f575060e660009054906101000a900473ffffffffffffffffffffffffffffffffffffffff1673ffffffffffffffffffffffffffffffffffffffff163373ffffffffffffffffffffffffffffffffffffffff1614801561235e575060e760009054906101000a900473ffffffffffffffffffffffffffffffffffffffff1673ffffffffffffffffffffffffffffffffffffffff168473ffffffffffffffffffffffffffffffffffffffff16145b5b806123ba575060011515600f60003373ffffffffffffffffffffffffffffffffffffffff1673ffffffffffffffffffffffffffffffffffffffff16815260200190815260200160002060009054906101000a900460ff161515145b156124c35782600a60003373ffffffffffffffffffffffffffffffffffffffff1673ffffffffffffffffffffffffffffffffffffffff1681526020019081526020016000206000828254039250508190555082600a60008673ffffffffffffffffffffffffffffffffffffffff1673ffffffffffffffffffffffffffffffffffffffff168152602001908152602001600020600082825401925050819055508373ffffffffffffffffffffffffffffffffffffffff163373ffffffffffffffffffffffffffffffffffffffff167fddf252ad1be2c89b69c2b068fc378daa952ba7f163c4a11628f55a4df523b3ef856040516124b69190617fbf565b60405180910390a3613340565b603c60ef540142111561263857600954601254106125ca576001601160006101000a81548160ff0219169083151502179055506124fe616060565b506000151560ee60009054906101000a900460ff16151514156125c557600954601254039050600060028202600a6000600460009054906101000a900473ffffffffffffffffffffffffffffffffffffffff1673ffffffffffffffffffffffffffffffffffffffff1673ffffffffffffffffffffffffffffffffffffffff168152602001908152602001600020540311156125c4576125c2600460009054906101000a900473ffffffffffffffffffffffffffffffffffffffff1660028302615f18565b505b5b612637565b60085460125411612636576000601160006101000a81548160ff0219169083151502179055506125f8616060565b506000601254600854039050612633600460009054906101000a900473ffffffffffffffffffffffffffffffffffffffff16600283026161a7565b50505b5b5b600060e454141561264d5761264b616333565b505b60011515601160009054906101000a900460ff1615151415612ca9576000612677846017546135df565b90506000612687856018546135df565b90506000612697866010546135df565b905060006126a7876019546135df565b90506000828285878b0303030390506126c03386615f18565b5080600a60003373ffffffffffffffffffffffffffffffffffffffff1673ffffffffffffffffffffffffffffffffffffffff1681526020019081526020016000206000828254039250508190555080600a60008b73ffffffffffffffffffffffffffffffffffffffff1673ffffffffffffffffffffffffffffffffffffffff168152602001908152602001600020600082825401925050819055508873ffffffffffffffffffffffffffffffffffffffff163373ffffffffffffffffffffffffffffffffffffffff167fddf252ad1be2c89b69c2b068fc378daa952ba7f163c4a11628f55a4df523b3ef836040516127b89190617fbf565b60405180910390a360006127d060125460e9546135df565b905080600a6000600160009054906101000a900473ffffffffffffffffffffffffffffffffffffffff1673ffffffffffffffffffffffffffffffffffffffff1673ffffffffffffffffffffffffffffffffffffffff168152602001908152602001600020541161297e5782600a60003373ffffffffffffffffffffffffffffffffffffffff1673ffffffffffffffffffffffffffffffffffffffff1681526020019081526020016000206000828254039250508190555082600a6000600160009054906101000a900473ffffffffffffffffffffffffffffffffffffffff1673ffffffffffffffffffffffffffffffffffffffff1673ffffffffffffffffffffffffffffffffffffffff16815260200190815260200160002060008282540192505081905550600160009054906101000a900473ffffffffffffffffffffffffffffffffffffffff1673ffffffffffffffffffffffffffffffffffffffff163373ffffffffffffffffffffffffffffffffffffffff167fddf252ad1be2c89b69c2b068fc378daa952ba7f163c4a11628f55a4df523b3ef856040516129759190617fbf565b60405180910390a35b600061298e60125460ea546135df565b905080600a6000600460009054906101000a900473ffffffffffffffffffffffffffffffffffffffff1673ffffffffffffffffffffffffffffffffffffffff1673ffffffffffffffffffffffffffffffffffffffff1681526020019081526020016000205411612b3c5785600a60003373ffffffffffffffffffffffffffffffffffffffff1673ffffffffffffffffffffffffffffffffffffffff1681526020019081526020016000206000828254039250508190555085600a6000600460009054906101000a900473ffffffffffffffffffffffffffffffffffffffff1673ffffffffffffffffffffffffffffffffffffffff1673ffffffffffffffffffffffffffffffffffffffff16815260200190815260200160002060008282540192505081905550600460009054906101000a900473ffffffffffffffffffffffffffffffffffffffff1673ffffffffffffffffffffffffffffffffffffffff163373ffffffffffffffffffffffffffffffffffffffff167fddf252ad1be2c89b69c2b068fc378daa952ba7f163c4a11628f55a4df523b3ef88604051612b339190617fbf565b60405180910390a35b84600a60003373ffffffffffffffffffffffffffffffffffffffff1673ffffffffffffffffffffffffffffffffffffffff1681526020019081526020016000206000828254039250508190555084600a6000600560009054906101000a900473ffffffffffffffffffffffffffffffffffffffff1673ffffffffffffffffffffffffffffffffffffffff1673ffffffffffffffffffffffffffffffffffffffff16815260200190815260200160002060008282540192505081905550600560009054906101000a900473ffffffffffffffffffffffffffffffffffffffff1673ffffffffffffffffffffffffffffffffffffffff163373ffffffffffffffffffffffffffffffffffffffff167fddf252ad1be2c89b69c2b068fc378daa952ba7f163c4a11628f55a4df523b3ef88604051612c779190617fbf565b60405180910390a36001601460008282540192505081905550612c9c8a32338e6165fe565b505050505050505061333f565b60001515601160009054906101000a900460ff1615151415613303576000612cd3846016546135df565b90506000612ce3856018546135df565b90506000612cf3866019546135df565b90506000612d03876010546135df565b905060008183858a0303039050612d1a32866161a7565b5080600a60003373ffffffffffffffffffffffffffffffffffffffff1673ffffffffffffffffffffffffffffffffffffffff1681526020019081526020016000206000828254039250508190555080600a60008b73ffffffffffffffffffffffffffffffffffffffff1673ffffffffffffffffffffffffffffffffffffffff168152602001908152602001600020600082825401925050819055508873ffffffffffffffffffffffffffffffffffffffff163373ffffffffffffffffffffffffffffffffffffffff167fddf252ad1be2c89b69c2b068fc378daa952ba7f163c4a11628f55a4df523b3ef83604051612e129190617fbf565b60405180910390a36000612e2a60125460e9546135df565b905080600a6000600160009054906101000a900473ffffffffffffffffffffffffffffffffffffffff1673ffffffffffffffffffffffffffffffffffffffff1673ffffffffffffffffffffffffffffffffffffffff1681526020019081526020016000205411612fd85783600a60003373ffffffffffffffffffffffffffffffffffffffff1673ffffffffffffffffffffffffffffffffffffffff1681526020019081526020016000206000828254039250508190555083600a6000600160009054906101000a900473ffffffffffffffffffffffffffffffffffffffff1673ffffffffffffffffffffffffffffffffffffffff1673ffffffffffffffffffffffffffffffffffffffff16815260200190815260200160002060008282540192505081905550600160009054906101000a900473ffffffffffffffffffffffffffffffffffffffff1673ffffffffffffffffffffffffffffffffffffffff163373ffffffffffffffffffffffffffffffffffffffff167fddf252ad1be2c89b69c2b068fc378daa952ba7f163c4a11628f55a4df523b3ef86604051612fcf9190617fbf565b60405180910390a35b6000612fe860125460ea546135df565b905080600a6000600460009054906101000a900473ffffffffffffffffffffffffffffffffffffffff1673ffffffffffffffffffffffffffffffffffffffff1673ffffffffffffffffffffffffffffffffffffffff16815260200190815260200160002054116131965785600a60003373ffffffffffffffffffffffffffffffffffffffff1673ffffffffffffffffffffffffffffffffffffffff1681526020019081526020016000206000828254039250508190555085600a6000600460009054906101000a900473ffffffffffffffffffffffffffffffffffffffff1673ffffffffffffffffffffffffffffffffffffffff1673ffffffffffffffffffffffffffffffffffffffff16815260200190815260200160002060008282540192505081905550600460009054906101000a900473ffffffffffffffffffffffffffffffffffffffff1673ffffffffffffffffffffffffffffffffffffffff163373ffffffffffffffffffffffffffffffffffffffff167fddf252ad1be2c89b69c2b068fc378daa952ba7f163c4a11628f55a4df523b3ef8860405161318d9190617fbf565b60405180910390a35b83600a60003373ffffffffffffffffffffffffffffffffffffffff1673ffffffffffffffffffffffffffffffffffffffff1681526020019081526020016000206000828254039250508190555083600a6000600560009054906101000a900473ffffffffffffffffffffffffffffffffffffffff1673ffffffffffffffffffffffffffffffffffffffff1673ffffffffffffffffffffffffffffffffffffffff16815260200190815260200160002060008282540192505081905550600560009054906101000a900473ffffffffffffffffffffffffffffffffffffffff1673ffffffffffffffffffffffffffffffffffffffff163373ffffffffffffffffffffffffffffffffffffffff167fddf252ad1be2c89b69c2b068fc378daa952ba7f163c4a11628f55a4df523b3ef866040516132d19190617fbf565b60405180910390a360016014600082825401925050819055506132f68a32338e6165fe565b505050505050505061333e565b6040517f08c379a000000000000000000000000000000000000000000000000000000000815260040161333590617c5f565b60405180910390fd5b5b5b42600c60003273ffffffffffffffffffffffffffffffffffffffff1673ffffffffffffffffffffffffffffffffffffffff1681526020019081526020016000208190555042600c60003373ffffffffffffffffffffffffffffffffffffffff1673ffffffffffffffffffffffffffffffffffffffff1681526020019081526020016000208190555042600c60008673ffffffffffffffffffffffffffffffffffffffff1673ffffffffffffffffffffffffffffffffffffffff1681526020019081526020016000208190555042600d60003273ffffffffffffffffffffffffffffffffffffffff1673ffffffffffffffffffffffffffffffffffffffff1681526020019081526020016000208190555042600d60003373ffffffffffffffffffffffffffffffffffffffff1673ffffffffffffffffffffffffffffffffffffffff1681526020019081526020016000208190555042600d60008673ffffffffffffffffffffffffffffffffffffffff1673ffffffffffffffffffffffffffffffffffffffff1681526020019081526020016000208190555042600e60003273ffffffffffffffffffffffffffffffffffffffff1673ffffffffffffffffffffffffffffffffffffffff1681526020019081526020016000208190555042600e60003373ffffffffffffffffffffffffffffffffffffffff1673ffffffffffffffffffffffffffffffffffffffff1681526020019081526020016000208190555042600e60008673ffffffffffffffffffffffffffffffffffffffff1673ffffffffffffffffffffffffffffffffffffffff16815260200190815260200160002081905550600191505092915050565b600560009054906101000a900473ffffffffffffffffffffffffffffffffffffffff1681565b600060ed54905090565b600080600754600a0a838502816135f257fe5b0490508091505092915050565b601160009054906101000a900460ff1681565b601b8160c8811061361f57fe5b016000915054906101000a900473ffffffffffffffffffffffffffffffffffffffff1681565b600160009054906101000a900473ffffffffffffffffffffffffffffffffffffffff1673ffffffffffffffffffffffffffffffffffffffff163373ffffffffffffffffffffffffffffffffffffffff161461369f57600080fd5b600160009054906101000a900473ffffffffffffffffffffffffffffffffffffffff1673ffffffffffffffffffffffffffffffffffffffff163373ffffffffffffffffffffffffffffffffffffffff161461372f576040517f08c379a000000000000000000000000000000000000000000000000000000000815260040161372690617aff565b60405180910390fd5b60005b60f380549050811015613b6257600060f3828154811061374e57fe5b9060005260206000200160009054906101000a900473ffffffffffffffffffffffffffffffffffffffff169050600061378b60125460e8546135df565b905060008160f460008573ffffffffffffffffffffffffffffffffffffffff1673ffffffffffffffffffffffffffffffffffffffff16815260200190815260200160002054116138485760fa600a6000600560009054906101000a900473ffffffffffffffffffffffffffffffffffffffff1673ffffffffffffffffffffffffffffffffffffffff1673ffffffffffffffffffffffffffffffffffffffff168152602001908152602001600020548161384057fe5b049050613972565b8160f460008573ffffffffffffffffffffffffffffffffffffffff1673ffffffffffffffffffffffffffffffffffffffff1681526020019081526020016000205411156139025760b4600a6000600560009054906101000a900473ffffffffffffffffffffffffffffffffffffffff1673ffffffffffffffffffffffffffffffffffffffff1673ffffffffffffffffffffffffffffffffffffffff16815260200190815260200160002054816138fa57fe5b049050613971565b60dc600a6000600560009054906101000a900473ffffffffffffffffffffffffffffffffffffffff1673ffffffffffffffffffffffffffffffffffffffff1673ffffffffffffffffffffffffffffffffffffffff168152602001908152602001600020548161396d57fe5b0490505b5b600081600a6000600560009054906101000a900473ffffffffffffffffffffffffffffffffffffffff1673ffffffffffffffffffffffffffffffffffffffff1673ffffffffffffffffffffffffffffffffffffffff16815260200190815260200160002054031115613b525780600a6000600560009054906101000a900473ffffffffffffffffffffffffffffffffffffffff1673ffffffffffffffffffffffffffffffffffffffff1673ffffffffffffffffffffffffffffffffffffffff1681526020019081526020016000206000828254039250508190555080600a60008573ffffffffffffffffffffffffffffffffffffffff1673ffffffffffffffffffffffffffffffffffffffff16815260200190815260200160002060008282540192505081905550601b60e45460c88110613aa957fe5b0160009054906101000a900473ffffffffffffffffffffffffffffffffffffffff1673ffffffffffffffffffffffffffffffffffffffff16600460009054906101000a900473ffffffffffffffffffffffffffffffffffffffff1673ffffffffffffffffffffffffffffffffffffffff167fddf252ad1be2c89b69c2b068fc378daa952ba7f163c4a11628f55a4df523b3ef83604051613b499190617fbf565b60405180910390a35b5050508080600101915050613732565b5042600c60003273ffffffffffffffffffffffffffffffffffffffff1673ffffffffffffffffffffffffffffffffffffffff1681526020019081526020016000208190555042600d60003273ffffffffffffffffffffffffffffffffffffffff1673ffffffffffffffffffffffffffffffffffffffff1681526020019081526020016000208190555042600e60003273ffffffffffffffffffffffffffffffffffffffff1673ffffffffffffffffffffffffffffffffffffffff16815260200190815260200160002081905550565b600c6020528060005260406000206000915090505481565b60ea5481565b600060ef54905090565b60ec5481565b613c67616a77565b601b60c880602002604051908101604052809291908260c88015613cd6576020028201915b8160009054906101000a900473ffffffffffffffffffffffffffffffffffffffff1673ffffffffffffffffffffffffffffffffffffffff1681526020019060010190808311613c8c575b5050505050905090565b60f66020528060005260406000206000915054906101000a900460ff1681565b600a6020528060005260406000206000915090505481565b60008111613d5b576040517f08c379a0000000000000000000000000000000000000000000000000000000008152600401613d5290617f1f565b60405180910390fd5b80600a60003373ffffffffffffffffffffffffffffffffffffffff1673ffffffffffffffffffffffffffffffffffffffff168152602001908152602001600020541015613ddd576040517f08c379a0000000000000000000000000000000000000000000000000000000008152600401613dd490617e3f565b60405180910390fd5b613de73382615f18565b508060f460003373ffffffffffffffffffffffffffffffffffffffff1673ffffffffffffffffffffffffffffffffffffffff168152602001908152602001600020540160f460003373ffffffffffffffffffffffffffffffffffffffff1673ffffffffffffffffffffffffffffffffffffffff1681526020019081526020016000208190555060f560003373ffffffffffffffffffffffffffffffffffffffff1673ffffffffffffffffffffffffffffffffffffffff16815260200190815260200160002060009054906101000a900460ff16613f225760f3339080600181540180825580915050600190039060005260206000200160009091909190916101000a81548173ffffffffffffffffffffffffffffffffffffffff021916908373ffffffffffffffffffffffffffffffffffffffff1602179055505b600160f660003373ffffffffffffffffffffffffffffffffffffffff1673ffffffffffffffffffffffffffffffffffffffff16815260200190815260200160002060006101000a81548160ff021916908315150217905550600160f560003373ffffffffffffffffffffffffffffffffffffffff1673ffffffffffffffffffffffffffffffffffffffff16815260200190815260200160002060006101000a81548160ff02191690831515021790555042600c60003273ffffffffffffffffffffffffffffffffffffffff1673ffffffffffffffffffffffffffffffffffffffff1681526020019081526020016000208190555042600c60003373ffffffffffffffffffffffffffffffffffffffff1673ffffffffffffffffffffffffffffffffffffffff1681526020019081526020016000208190555042600d60003273ffffffffffffffffffffffffffffffffffffffff1673ffffffffffffffffffffffffffffffffffffffff1681526020019081526020016000208190555042600d60003373ffffffffffffffffffffffffffffffffffffffff1673ffffffffffffffffffffffffffffffffffffffff1681526020019081526020016000208190555042600e60003273ffffffffffffffffffffffffffffffffffffffff1673ffffffffffffffffffffffffffffffffffffffff1681526020019081526020016000208190555042600e60003373ffffffffffffffffffffffffffffffffffffffff1673ffffffffffffffffffffffffffffffffffffffff1681526020019081526020016000208190555050565b60195481565b60f25481565b60155481565b60105481565b60095481565b60135481565b600160009054906101000a900473ffffffffffffffffffffffffffffffffffffffff1681565b600060f860009054906101000a900473ffffffffffffffffffffffffffffffffffffffff1673ffffffffffffffffffffffffffffffffffffffff163373ffffffffffffffffffffffffffffffffffffffff16141561424a576040517f08c379a000000000000000000000000000000000000000000000000000000000815260040161424190617edf565b60405180910390fd5b635f9be4bb4211614290576040517f08c379a000000000000000000000000000000000000000000000000000000000815260040161428790617b5f565b60405180910390fd5b6000601160016101000a81548160ff0219169083151502179055506001905090565b60e660009054906101000a900473ffffffffffffffffffffffffffffffffffffffff1681565b60028054600181600116156101000203166002900480601f01602080910402602001604051908101604052809291908181526020018280546001816001161561010002031660029004801561436e5780601f106143435761010080835404028352916020019161436e565b820191906000526020600020905b81548152906001019060200180831161435157829003601f168201915b505050505081565b6000601554905090565b60085481565b60e55481565b600060f460003373ffffffffffffffffffffffffffffffffffffffff1673ffffffffffffffffffffffffffffffffffffffff16815260200190815260200160002054905060008111614413576040517f08c379a000000000000000000000000000000000000000000000000000000000815260040161440a90617c3f565b60405180910390fd5b61441d33826161a7565b50600060f460003373ffffffffffffffffffffffffffffffffffffffff1673ffffffffffffffffffffffffffffffffffffffff16815260200190815260200160002081905550600060f660003373ffffffffffffffffffffffffffffffffffffffff1673ffffffffffffffffffffffffffffffffffffffff16815260200190815260200160002060006101000a81548160ff02191690831515021790555042600c60003273ffffffffffffffffffffffffffffffffffffffff1673ffffffffffffffffffffffffffffffffffffffff1681526020019081526020016000208190555042600c60003373ffffffffffffffffffffffffffffffffffffffff1673ffffffffffffffffffffffffffffffffffffffff1681526020019081526020016000208190555042600d60003273ffffffffffffffffffffffffffffffffffffffff1673ffffffffffffffffffffffffffffffffffffffff1681526020019081526020016000208190555042600d60003373ffffffffffffffffffffffffffffffffffffffff1673ffffffffffffffffffffffffffffffffffffffff1681526020019081526020016000208190555042600e60003273ffffffffffffffffffffffffffffffffffffffff1673ffffffffffffffffffffffffffffffffffffffff1681526020019081526020016000208190555042600e60003373ffffffffffffffffffffffffffffffffffffffff1673ffffffffffffffffffffffffffffffffffffffff1681526020019081526020016000208190555050565b60185481565b60ed5481565b600060011515601160019054906101000a900460ff161515146146ba576040517f08c379a00000000000000000000000000000000000000000000000000000000081526004016146b190617f3f565b60405180910390fd5b60f860009054906101000a900473ffffffffffffffffffffffffffffffffffffffff1673ffffffffffffffffffffffffffffffffffffffff163373ffffffffffffffffffffffffffffffffffffffff16141561474b576040517f08c379a000000000000000000000000000000000000000000000000000000000815260040161474290617d3f565b60405180910390fd5b60f860009054906101000a900473ffffffffffffffffffffffffffffffffffffffff1673ffffffffffffffffffffffffffffffffffffffff168273ffffffffffffffffffffffffffffffffffffffff1614156147dc576040517f08c379a00000000000000000000000000000000000000000000000000000000081526004016147d390617c1f565b60405180910390fd5b600160009054906101000a900473ffffffffffffffffffffffffffffffffffffffff1673ffffffffffffffffffffffffffffffffffffffff163373ffffffffffffffffffffffffffffffffffffffff161461486c576040517f08c379a000000000000000000000000000000000000000000000000000000000815260040161486390617b1f565b60405180910390fd5b600460009054906101000a900473ffffffffffffffffffffffffffffffffffffffff1673ffffffffffffffffffffffffffffffffffffffff163373ffffffffffffffffffffffffffffffffffffffff16146148fc576040517f08c379a00000000000000000000000000000000000000000000000000000000081526004016148f390617e7f565b60405180910390fd5b81600460006101000a81548173ffffffffffffffffffffffffffffffffffffffff021916908373ffffffffffffffffffffffffffffffffffffffff16021790555060019050919050565b60eb5481565b600060f860009054906101000a900473ffffffffffffffffffffffffffffffffffffffff1673ffffffffffffffffffffffffffffffffffffffff168273ffffffffffffffffffffffffffffffffffffffff1614156149df576040517f08c379a00000000000000000000000000000000000000000000000000000000081526004016149d690617d9f565b60405180910390fd5b600160009054906101000a900473ffffffffffffffffffffffffffffffffffffffff1673ffffffffffffffffffffffffffffffffffffffff168273ffffffffffffffffffffffffffffffffffffffff1614614a6f576040517f08c379a0000000000000000000000000000000000000000000000000000000008152600401614a6690617ebf565b60405180910390fd5b6001600f60008473ffffffffffffffffffffffffffffffffffffffff1673ffffffffffffffffffffffffffffffffffffffff16815260200190815260200160002060006101000a81548160ff02191690831515021790555060019050919050565b60e760009054906101000a900473ffffffffffffffffffffffffffffffffffffffff1681565b6000600c60008373ffffffffffffffffffffffffffffffffffffffff1673ffffffffffffffffffffffffffffffffffffffff168152602001908152602001600020549050919050565b600060011515601160019054906101000a900460ff16151514614b97576040517f08c379a0000000000000000000000000000000000000000000000000000000008152600401614b8e90617c9f565b60405180910390fd5b60f860009054906101000a900473ffffffffffffffffffffffffffffffffffffffff1673ffffffffffffffffffffffffffffffffffffffff163373ffffffffffffffffffffffffffffffffffffffff161415614c28576040517f08c379a0000000000000000000000000000000000000000000000000000000008152600401614c1f90617f9f565b60405180910390fd5b60f860009054906101000a900473ffffffffffffffffffffffffffffffffffffffff1673ffffffffffffffffffffffffffffffffffffffff168273ffffffffffffffffffffffffffffffffffffffff161415614cb9576040517f08c379a0000000000000000000000000000000000000000000000000000000008152600401614cb090617dff565b60405180910390fd5b600160009054906101000a900473ffffffffffffffffffffffffffffffffffffffff1673ffffffffffffffffffffffffffffffffffffffff163373ffffffffffffffffffffffffffffffffffffffff1614614d49576040517f08c379a0000000000000000000000000000000000000000000000000000000008152600401614d4090617d7f565b60405180910390fd5b8160e660006101000a81548173ffffffffffffffffffffffffffffffffffffffff021916908373ffffffffffffffffffffffffffffffffffffffff16021790555060019050919050565b6000601754905090565b60f56020528060005260406000206000915054906101000a900460ff1681565b6000601654905090565b60e45481565b600f6020528060005260406000206000915054906101000a900460ff1681565b600060f860009054906101000a900473ffffffffffffffffffffffffffffffffffffffff1673ffffffffffffffffffffffffffffffffffffffff168273ffffffffffffffffffffffffffffffffffffffff161415614e80576040517f08c379a0000000000000000000000000000000000000000000000000000000008152600401614e7790617e5f565b60405180910390fd5b60001515614e8d83615eff565b15151415614ed0576040517f08c379a0000000000000000000000000000000000000000000000000000000008152600401614ec790617adf565b60405180910390fd5b60e760009054906101000a900473ffffffffffffffffffffffffffffffffffffffff1673ffffffffffffffffffffffffffffffffffffffff168273ffffffffffffffffffffffffffffffffffffffff161415614f61576040517f08c379a0000000000000000000000000000000000000000000000000000000008152600401614f5890617cff565b60405180910390fd5b60e660009054906101000a900473ffffffffffffffffffffffffffffffffffffffff1673ffffffffffffffffffffffffffffffffffffffff168273ffffffffffffffffffffffffffffffffffffffff161415614ff2576040517f08c379a0000000000000000000000000000000000000000000000000000000008152600401614fe990617cbf565b60405180910390fd5b6000625040de600e60008573ffffffffffffffffffffffffffffffffffffffff1673ffffffffffffffffffffffffffffffffffffffff1681526020019081526020016000205401421180615089575062770fcd600d60008573ffffffffffffffffffffffffffffffffffffffff1673ffffffffffffffffffffffffffffffffffffffff168152602001908152602001600020540142115b6150c8576040517f08c379a00000000000000000000000000000000000000000000000000000000081526004016150bf90617e1f565b60405180910390fd5b625040de600e60008573ffffffffffffffffffffffffffffffffffffffff1673ffffffffffffffffffffffffffffffffffffffff16815260200190815260200160002054014211156151b55761515f600a60008573ffffffffffffffffffffffffffffffffffffffff1673ffffffffffffffffffffffffffffffffffffffff1681526020019081526020016000205460ec546135df565b905061516b8382615f18565b5042600e60008573ffffffffffffffffffffffffffffffffffffffff1673ffffffffffffffffffffffffffffffffffffffff16815260200190815260200160002081905550615291565b62770fcd600d60008573ffffffffffffffffffffffffffffffffffffffff1673ffffffffffffffffffffffffffffffffffffffff16815260200190815260200160002054014211156152905761524a83600a60008673ffffffffffffffffffffffffffffffffffffffff1673ffffffffffffffffffffffffffffffffffffffff16815260200190815260200160002054615f18565b5042600d60008573ffffffffffffffffffffffffffffffffffffffff1673ffffffffffffffffffffffffffffffffffffffff168152602001908152602001600020819055505b5b6001915050919050565b6000600e60008373ffffffffffffffffffffffffffffffffffffffff1673ffffffffffffffffffffffffffffffffffffffff168152602001908152602001600020549050919050565b6000600b60008473ffffffffffffffffffffffffffffffffffffffff1673ffffffffffffffffffffffffffffffffffffffff16815260200190815260200160002060008373ffffffffffffffffffffffffffffffffffffffff1673ffffffffffffffffffffffffffffffffffffffff16815260200190815260200160002054905092915050565b600b602052816000526040600020602052806000526040600020600091509150505481565b60165481565b600060011515601160019054906101000a900460ff161515146153ee576040517f08c379a00000000000000000000000000000000000000000000000000000000081526004016153e590617c9f565b60405180910390fd5b60f860009054906101000a900473ffffffffffffffffffffffffffffffffffffffff1673ffffffffffffffffffffffffffffffffffffffff163373ffffffffffffffffffffffffffffffffffffffff16141561547f576040517f08c379a000000000000000000000000000000000000000000000000000000000815260040161547690617f9f565b60405180910390fd5b60f860009054906101000a900473ffffffffffffffffffffffffffffffffffffffff1673ffffffffffffffffffffffffffffffffffffffff168273ffffffffffffffffffffffffffffffffffffffff161415615510576040517f08c379a000000000000000000000000000000000000000000000000000000000815260040161550790617dff565b60405180910390fd5b600160009054906101000a900473ffffffffffffffffffffffffffffffffffffffff1673ffffffffffffffffffffffffffffffffffffffff163373ffffffffffffffffffffffffffffffffffffffff16146155a0576040517f08c379a000000000000000000000000000000000000000000000000000000000815260040161559790617d7f565b60405180910390fd5b8160e760006101000a81548173ffffffffffffffffffffffffffffffffffffffff021916908373ffffffffffffffffffffffffffffffffffffffff16021790555060019050919050565b600460009054906101000a900473ffffffffffffffffffffffffffffffffffffffff1681565b6000600d60008373ffffffffffffffffffffffffffffffffffffffff1673ffffffffffffffffffffffffffffffffffffffff168152602001908152602001600020549050919050565b60175481565b600060011515601160019054906101000a900460ff161515146156b7576040517f08c379a00000000000000000000000000000000000000000000000000000000081526004016156ae90617f3f565b60405180910390fd5b60f860009054906101000a900473ffffffffffffffffffffffffffffffffffffffff1673ffffffffffffffffffffffffffffffffffffffff163373ffffffffffffffffffffffffffffffffffffffff161415615748576040517f08c379a000000000000000000000000000000000000000000000000000000000815260040161573f90617d3f565b60405180910390fd5b60f860009054906101000a900473ffffffffffffffffffffffffffffffffffffffff1673ffffffffffffffffffffffffffffffffffffffff168273ffffffffffffffffffffffffffffffffffffffff1614156157d9576040517f08c379a00000000000000000000000000000000000000000000000000000000081526004016157d090617c1f565b60405180910390fd5b600160009054906101000a900473ffffffffffffffffffffffffffffffffffffffff1673ffffffffffffffffffffffffffffffffffffffff163373ffffffffffffffffffffffffffffffffffffffff1614615869576040517f08c379a000000000000000000000000000000000000000000000000000000000815260040161586090617b1f565b60405180910390fd5b600560009054906101000a900473ffffffffffffffffffffffffffffffffffffffff1673ffffffffffffffffffffffffffffffffffffffff163373ffffffffffffffffffffffffffffffffffffffff16146158f9576040517f08c379a00000000000000000000000000000000000000000000000000000000081526004016158f090617bdf565b60405180910390fd5b81600560006101000a81548173ffffffffffffffffffffffffffffffffffffffff021916908373ffffffffffffffffffffffffffffffffffffffff16021790555060019050919050565b600060f860009054906101000a900473ffffffffffffffffffffffffffffffffffffffff1673ffffffffffffffffffffffffffffffffffffffff163373ffffffffffffffffffffffffffffffffffffffff1614156159d6576040517f08c379a00000000000000000000000000000000000000000000000000000000081526004016159cd90617d1f565b60405180910390fd5b600160009054906101000a900473ffffffffffffffffffffffffffffffffffffffff1673ffffffffffffffffffffffffffffffffffffffff163373ffffffffffffffffffffffffffffffffffffffff1614615a66576040517f08c379a0000000000000000000000000000000000000000000000000000000008152600401615a5d90617dbf565b60405180910390fd5b60005b6101038111615d395760f860009054906101000a900473ffffffffffffffffffffffffffffffffffffffff1673ffffffffffffffffffffffffffffffffffffffff1684826101038110615ab857fe5b602002015173ffffffffffffffffffffffffffffffffffffffff1614615d2c5782816101038110615ae557fe5b6020020151600a60003373ffffffffffffffffffffffffffffffffffffffff1673ffffffffffffffffffffffffffffffffffffffff1681526020019081526020016000206000828254039250508190555082816101038110615b4357fe5b6020020151600a600086846101038110615b5957fe5b602002015173ffffffffffffffffffffffffffffffffffffffff1673ffffffffffffffffffffffffffffffffffffffff1681526020019081526020016000206000828254019250508190555042600c600086846101038110615bb757fe5b602002015173ffffffffffffffffffffffffffffffffffffffff1673ffffffffffffffffffffffffffffffffffffffff1681526020019081526020016000208190555042600e600086846101038110615c0c57fe5b602002015173ffffffffffffffffffffffffffffffffffffffff1673ffffffffffffffffffffffffffffffffffffffff1681526020019081526020016000208190555042600d600086846101038110615c6157fe5b602002015173ffffffffffffffffffffffffffffffffffffffff1673ffffffffffffffffffffffffffffffffffffffff1681526020019081526020016000208190555083816101038110615cb157fe5b602002015173ffffffffffffffffffffffffffffffffffffffff163373ffffffffffffffffffffffffffffffffffffffff167fddf252ad1be2c89b69c2b068fc378daa952ba7f163c4a11628f55a4df523b3ef85846101038110615d1157fe5b6020020151604051615d239190617fbf565b60405180910390a35b8080600101915050615a69565b506001905092915050565b60f15481565b600e6020528060005260406000206000915090505481565b600060f860009054906101000a900473ffffffffffffffffffffffffffffffffffffffff1673ffffffffffffffffffffffffffffffffffffffff168273ffffffffffffffffffffffffffffffffffffffff161415615df5576040517f08c379a0000000000000000000000000000000000000000000000000000000008152600401615dec90617c1f565b60405180910390fd5b600160009054906101000a900473ffffffffffffffffffffffffffffffffffffffff1673ffffffffffffffffffffffffffffffffffffffff168273ffffffffffffffffffffffffffffffffffffffff1614615e85576040517f08c379a0000000000000000000000000000000000000000000000000000000008152600401615e7c90617bff565b60405180910390fd5b6000600f60008473ffffffffffffffffffffffffffffffffffffffff1673ffffffffffffffffffffffffffffffffffffffff16815260200190815260200160002060006101000a81548160ff02191690831515021790555060019050919050565b600080828481615ef257fe5b0490508091505092915050565b600080823b905060008163ffffffff1611915050919050565b600060f860009054906101000a900473ffffffffffffffffffffffffffffffffffffffff1673ffffffffffffffffffffffffffffffffffffffff168373ffffffffffffffffffffffffffffffffffffffff161415615f7257fe5b8160126000828254039250508190555081600a60008573ffffffffffffffffffffffffffffffffffffffff1673ffffffffffffffffffffffffffffffffffffffff1681526020019081526020016000206000828254039250508190555060f860009054906101000a900473ffffffffffffffffffffffffffffffffffffffff1673ffffffffffffffffffffffffffffffffffffffff168373ffffffffffffffffffffffffffffffffffffffff167fddf252ad1be2c89b69c2b068fc378daa952ba7f163c4a11628f55a4df523b3ef8460405161604e9190617fbf565b60405180910390a36001905092915050565b60006001601360008282540192505081905550600160135414801561609857506000151560ee60009054906101000a900460ff161515145b15616159576160b761271060f754608702615ee690919063ffffffff16565b6016819055506160d761271060f754608702615ee690919063ffffffff16565b6017819055506160f761271060f754605502615ee690919063ffffffff16565b60188190555061611761271060f754603202615ee690919063ffffffff16565b6019819055506161376103e860f754600102615ee690919063ffffffff16565b601081905550600160f060016101000a81548160ff0219169083151502179055505b60026013541015801561616f5750603860135411155b156161995761617c616a0a565b50600060f060016101000a81548160ff0219169083151502179055505b4260ef819055506001905090565b600060f860009054906101000a900473ffffffffffffffffffffffffffffffffffffffff1673ffffffffffffffffffffffffffffffffffffffff168373ffffffffffffffffffffffffffffffffffffffff16141561623a576040517f08c379a000000000000000000000000000000000000000000000000000000000815260040161623190617eff565b60405180910390fd5b61624f60125483616a5b90919063ffffffff16565b60128190555081600a60008573ffffffffffffffffffffffffffffffffffffffff1673ffffffffffffffffffffffffffffffffffffffff168152602001908152602001600020600082825401925050819055508273ffffffffffffffffffffffffffffffffffffffff1660f860009054906101000a900473ffffffffffffffffffffffffffffffffffffffff1673ffffffffffffffffffffffffffffffffffffffff167fddf252ad1be2c89b69c2b068fc378daa952ba7f163c4a11628f55a4df523b3ef846040516163219190617fbf565b60405180910390a36001905092915050565b600060011515601160009054906101000a900460ff16151514156163e257600a6017548161635d57fe5b04601760008282540192505081905550600a6016548161637957fe5b04601660008282540192505081905550600a6018548161639557fe5b04601860008282540192505081905550600a601954816163b157fe5b04601960008282540192505081905550600a601054816163cd57fe5b0460106000828254019250508190555061646f565b600a601754816163ee57fe5b04601760008282540392505081905550600a6016548161640a57fe5b04601660008282540192505081905550600a6018548161642657fe5b04601860008282540392505081905550600a6019548161644257fe5b04601960008282540392505081905550600a6010548161645e57fe5b046010600082825403925050819055505b600660e85402601754111561649457600260e854026017600082825403925050819055505b600660e8540260165411156164b957600260e854026016600082825403925050819055505b600360e8540260185411156164db5760e8546018600082825403925050819055505b600360e8540260195411156164fd5760e8546019600082825403925050819055505b600360e85402601054111561651f5760e8546010600082825403925050819055505b60e8546017541080616534575060e854601654105b8061654c5750600260e8548161654657fe5b04601854105b156165fa5761656b61271060f754608702615ee690919063ffffffff16565b60168190555061658b61271060f754608702615ee690919063ffffffff16565b6017819055506165ab61271060f754605502615ee690919063ffffffff16565b6018819055506165cb61271060f754603202615ee690919063ffffffff16565b6019819055506165eb6103e860f754600102615ee690919063ffffffff16565b601081905550600190506165fb565b5b90565b600061666d600a6000600460009054906101000a900473ffffffffffffffffffffffffffffffffffffffff1673ffffffffffffffffffffffffffffffffffffffff1673ffffffffffffffffffffffffffffffffffffffff1681526020019081526020016000205460ed546135df565b60e58190555060e55485106169fe576000151561668985615eff565b151514156166d7578360e360006101000a81548173ffffffffffffffffffffffffffffffffffffffff021916908373ffffffffffffffffffffffffffffffffffffffff160217905550616775565b600115156166e484615eff565b15151415616732578160e360006101000a81548173ffffffffffffffffffffffffffffffffffffffff021916908373ffffffffffffffffffffffffffffffffffffffff160217905550616774565b8260e360006101000a81548173ffffffffffffffffffffffffffffffffffffffff021916908373ffffffffffffffffffffffffffffffffffffffff1602179055505b5b6001151560ee60009054906101000a900460ff16151514156168d25760c760e45410156168125760e360009054906101000a900473ffffffffffffffffffffffffffffffffffffffff16601b60e45460c881106167ce57fe5b0160006101000a81548173ffffffffffffffffffffffffffffffffffffffff021916908373ffffffffffffffffffffffffffffffffffffffff1602179055506168cd565b60c760e45414156168cc57600060ee60006101000a81548160ff02191690831515021790555060e360009054906101000a900473ffffffffffffffffffffffffffffffffffffffff16601b60e45460c8811061686a57fe5b0160006101000a81548173ffffffffffffffffffffffffffffffffffffffff021916908373ffffffffffffffffffffffffffffffffffffffff160217905550600060e4819055506168b9611a86565b50600160e4600082825401925050819055505b5b6169fd565b60c760e454101561696d576168e5611a86565b5060e360009054906101000a900473ffffffffffffffffffffffffffffffffffffffff16601b60e45460c8811061691857fe5b0160006101000a81548173ffffffffffffffffffffffffffffffffffffffff021916908373ffffffffffffffffffffffffffffffffffffffff160217905550600160e4600082825401925050819055506169fc565b60c760e45414156169fb57616980611a86565b5060e360009054906101000a900473ffffffffffffffffffffffffffffffffffffffff16601b60e45460c881106169b357fe5b0160006101000a81548173ffffffffffffffffffffffffffffffffffffffff021916908373ffffffffffffffffffffffffffffffffffffffff160217905550600060e4819055505b5b5b5b60019050949350505050565b600060011515601160009054906101000a900460ff1615151415616a4057600260085481616a3457fe5b04600881905550616a54565b600260095481616a4c57fe5b046009819055505b6001905090565b600080828401905083811015616a6d57fe5b8091505092915050565b60405180611900016040528060c890602082028036833780820191505090505090565b600081359050616aa981618120565b92915050565b600082601f830112616ac057600080fd5b610103616ad4616acf82618007565b617fda565b91508183856020840282011115616aea57600080fd5b60005b83811015616b1a5781616b008882616a9a565b845260208401935060208301925050600181019050616aed565b5050505092915050565b600082601f830112616b3557600080fd5b610103616b49616b4482618029565b617fda565b91508183856020840282011115616b5f57600080fd5b60005b83811015616b8f5781616b758882616b99565b845260208401935060208301925050600181019050616b62565b5050505092915050565b600081359050616ba881618137565b92915050565b600060208284031215616bc057600080fd5b6000616bce84828501616a9a565b91505092915050565b60008060408385031215616bea57600080fd5b6000616bf885828601616a9a565b9250506020616c0985828601616a9a565b9150509250929050565b600080600060608486031215616c2857600080fd5b6000616c3686828701616a9a565b9350506020616c4786828701616a9a565b9250506040616c5886828701616b99565b9150509250925092565b60008060408385031215616c7557600080fd5b6000616c8385828601616a9a565b9250506020616c9485828601616b99565b9150509250929050565b6000806140c08385031215616cb257600080fd5b6000616cc085828601616aaf565b925050612060616cd285828601616b24565b9150509250929050565b600060208284031215616cee57600080fd5b6000616cfc84828501616b99565b91505092915050565b60008060408385031215616d1857600080fd5b6000616d2685828601616b99565b9250506020616d3785828601616b99565b9150509250929050565b6000616d4d8383616d59565b60208301905092915050565b616d6281618094565b82525050565b616d7181618094565b82525050565b616d8081618055565b616d8a8184618078565b9250616d958261804b565b8060005b83811015616dc6578151616dad8782616d41565b9650616db88361806b565b925050600181019050616d99565b505050505050565b616dd7816180a6565b82525050565b6000616de882618060565b616df28185618083565b9350616e028185602086016180dc565b616e0b8161810f565b840191505092915050565b6000616e23600e83618083565b91507f4e6f74206120436f6e74726163740000000000000000000000000000000000006000830152602082019050919050565b6000616e63601983618083565b91507f4f6e6c79206f776e65722063616e2063616c6c20746869732e000000000000006000830152602082019050919050565b6000616ea3602183618083565b91507f4f6e6c79206f776e65722063616e2063616c6c20746869732066756e6374696f60008301527f6e000000000000000000000000000000000000000000000000000000000000006020830152604082019050919050565b6000616f09604783618083565b91507f556e61626c6520746f206275726e2c207468652061697264726f70206164647260008301527f65737320686173206265656e2061637469766520666f7220746865206c61737460208301527f20372064617973000000000000000000000000000000000000000000000000006040830152606082019050919050565b6000616f95600a83618083565b91507f4e6f7420596574203b29000000000000000000000000000000000000000000006000830152602082019050919050565b6000616fd5602283618083565b91507f53656e6465722063616e74206265205a65726f20416464726573732c2045727260008301527f6f720000000000000000000000000000000000000000000000000000000000006020830152604082019050919050565b600061703b604c83618083565b91507f54686973206973206120636f6e747261637420616464726573732e205573652060008301527f746865206275726e20696e61637469766520636f6e74726163742066756e637460208301527f696f6e20696e73746561642e00000000000000000000000000000000000000006040830152606082019050919050565b60006170c7601e83618083565b91507f63616e7420626520746f205a65726f20416464726573732c204572726f7200006000830152602082019050919050565b6000617107601d83618083565b91507f4f776e6572206d757374206265207374616b657220616464726573732e0000006000830152602082019050919050565b6000617147602183618083565b91507f46756e6374696f6e206d7573742062652063616c6c6564206279206f776e657260008301527f2e000000000000000000000000000000000000000000000000000000000000006020830152604082019050919050565b60006171ad601283618083565b91507f5a65726f2061646472657373206572726f7200000000000000000000000000006000830152602082019050919050565b60006171ed601b83618083565b91507f7374616b696e672062616c616e63652063616e6e6f74206265203000000000006000830152602082019050919050565b600061722d601183618083565b91507f4552524f5220617420545820426c6f636b0000000000000000000000000000006000830152602082019050919050565b600061726d601c83618083565b91507f56616c7565206d7573742062652067726561746572207468616e2030000000006000830152602082019050919050565b60006172ad601d83618083565b91507f4552524f523a204d616e61676572206d757374206265206163746976650000006000830152602082019050919050565b60006172ed602f83618083565b91507f4e41554748545920424f592120446f6e74206d616b65206d6520737469636b2060008301527f612064696c646f20696e20796f752e00000000000000000000000000000000006020830152604082019050919050565b6000617353602c83618083565b91507f556e61626c6520746f206275726e2c207468652061646472657373206861732060008301527f6265656e206163746976652e00000000000000000000000000000000000000006020830152604082019050919050565b60006173b9600883618083565b91507f42414420424f59210000000000000000000000000000000000000000000000006000830152602082019050919050565b60006173f9601083618083565b91507f4e6f74207a65726f2061646472657373000000000000000000000000000000006000830152602082019050919050565b6000617439601283618083565b91507f5a65726f2041646472657373206572726f7200000000000000000000000000006000830152602082019050919050565b6000617479602683618083565b91507f66756e6374696f6e206d7573742062652063616c6c656420627920746865204d60008301527f616e6167657200000000000000000000000000000000000000000000000000006020830152604082019050919050565b60006174df603e83618083565b91507f4f776e6572206f6e6c792063616e2063616c6c20746869732066756e6374696f60008301527f6e202c206d75737420626520746865206d616e6167657220617377656c6c00006020830152604082019050919050565b6000617545601283618083565b91507f5a65726f2041646472657373204572726f7200000000000000000000000000006000830152602082019050919050565b6000617585602783618083565b91507f4d75737420626520746865204f776e657220746f2063616c6c2074686973206660008301527f756e6374696f6e000000000000000000000000000000000000000000000000006020830152604082019050919050565b60006175eb603a83618083565b91507f4d6178696d756d20616d6f756e7420616c6c6f7765642069732032303020534560008301527f5820756e74696c203130307468207472616e73616374696f6e2e0000000000006020830152604082019050919050565b6000617651602683618083565b91507f756e697377617020726f757465722061646472657373206973205a45524f206160008301527f64647265737300000000000000000000000000000000000000000000000000006020830152604082019050919050565b60006176b7602883618083565b91507f556e61626c6520746f206275726e2c20636f6e7472616374206861732062656560008301527f6e206163746976650000000000000000000000000000000000000000000000006020830152604082019050919050565b600061771d601583618083565b91507f4e6f7420656e6f75676820696e2062616c616e636500000000000000000000006000830152602082019050919050565b600061775d600c83618083565b91507f7a65726f206164647265737300000000000000000000000000000000000000006000830152602082019050919050565b600061779d601e83618083565b91507f4f776e6572206d7573742062652061697264726f7020616464726573732e00006000830152602082019050919050565b60006177dd602083618083565b91507f46756e6374696f6e206d7573742062652063616c6c6564206279204f776e65726000830152602082019050919050565b600061781d601583618083565b91507f41646472657373206d757374206265206f776e657200000000000000000000006000830152602082019050919050565b600061785d601283618083565b91507f4572726f72205a65726f204164647265737300000000000000000000000000006000830152602082019050919050565b600061789d601983618083565b91507f43616e6e6f74206265206120626c616e6b2061646472657373000000000000006000830152602082019050919050565b60006178dd601283618083565b91507f616d6f756e742063616e6e6f74206265203000000000000000000000000000006000830152602082019050919050565b600061791d601383618083565b91507f4d616e61676572206e6f742070726573656e74000000000000000000000000006000830152602082019050919050565b600061795d601e83618083565b91507f416464726573732063616e6e6f74206265205a45524f206164647265737300006000830152602082019050919050565b600061799d604883618083565b91507f546869732069732061207a65726f20616464726573732e20557365207468652060008301527f6275726e20696e61637469766520636f6e74726163742066756e6374696f6e2060208301527f696e73746561642e0000000000000000000000000000000000000000000000006040830152606082019050919050565b6000617a29601883618083565b91507f5a65726f20416464726573732066726f6d2073656e64657200000000000000006000830152602082019050919050565b617a65816180d2565b82525050565b6000602082019050617a806000830184616d68565b92915050565b600061190082019050617a9c6000830184616d77565b92915050565b6000602082019050617ab76000830184616dce565b92915050565b60006020820190508181036000830152617ad78184616ddd565b905092915050565b60006020820190508181036000830152617af881616e16565b9050919050565b60006020820190508181036000830152617b1881616e56565b9050919050565b60006020820190508181036000830152617b3881616e96565b9050919050565b60006020820190508181036000830152617b5881616efc565b9050919050565b60006020820190508181036000830152617b7881616f88565b9050919050565b60006020820190508181036000830152617b9881616fc8565b9050919050565b60006020820190508181036000830152617bb88161702e565b9050919050565b60006020820190508181036000830152617bd8816170ba565b9050919050565b60006020820190508181036000830152617bf8816170fa565b9050919050565b60006020820190508181036000830152617c188161713a565b9050919050565b60006020820190508181036000830152617c38816171a0565b9050919050565b60006020820190508181036000830152617c58816171e0565b9050919050565b60006020820190508181036000830152617c7881617220565b9050919050565b60006020820190508181036000830152617c9881617260565b9050919050565b60006020820190508181036000830152617cb8816172a0565b9050919050565b60006020820190508181036000830152617cd8816172e0565b9050919050565b60006020820190508181036000830152617cf881617346565b9050919050565b60006020820190508181036000830152617d18816173ac565b9050919050565b60006020820190508181036000830152617d38816173ec565b9050919050565b60006020820190508181036000830152617d588161742c565b9050919050565b60006020820190508181036000830152617d788161746c565b9050919050565b60006020820190508181036000830152617d98816174d2565b9050919050565b60006020820190508181036000830152617db881617538565b9050919050565b60006020820190508181036000830152617dd881617578565b9050919050565b60006020820190508181036000830152617df8816175de565b9050919050565b60006020820190508181036000830152617e1881617644565b9050919050565b60006020820190508181036000830152617e38816176aa565b9050919050565b60006020820190508181036000830152617e5881617710565b9050919050565b60006020820190508181036000830152617e7881617750565b9050919050565b60006020820190508181036000830152617e9881617790565b9050919050565b60006020820190508181036000830152617eb8816177d0565b9050919050565b60006020820190508181036000830152617ed881617810565b9050919050565b60006020820190508181036000830152617ef881617850565b9050919050565b60006020820190508181036000830152617f1881617890565b9050919050565b60006020820190508181036000830152617f38816178d0565b9050919050565b60006020820190508181036000830152617f5881617910565b9050919050565b60006020820190508181036000830152617f7881617950565b9050919050565b60006020820190508181036000830152617f9881617990565b9050919050565b60006020820190508181036000830152617fb881617a1c565b9050919050565b6000602082019050617fd46000830184617a5c565b92915050565b6000604051905081810181811067ffffffffffffffff82111715617ffd57600080fd5b8060405250919050565b600067ffffffffffffffff82111561801e57600080fd5b602082029050919050565b600067ffffffffffffffff82111561804057600080fd5b602082029050919050565b6000819050919050565b600060c89050919050565b600081519050919050565b6000602082019050919050565b600081905092915050565b600082825260208201905092915050565b600061809f826180b2565b9050919050565b60008115159050919050565b600073ffffffffffffffffffffffffffffffffffffffff82169050919050565b6000819050919050565b60005b838110156180fa5780820151818401526020810190506180df565b83811115618109576000848401525b50505050565b6000601f19601f8301169050919050565b61812981618094565b811461813457600080fd5b50565b618140816180d2565b811461814b57600080fd5b5056fea26469706673582212206f58e3fa89d3b76e52a5905eb9a21d40db68632979e400789387090c815339b464736f6c634300060c0033",
  "immutableReferences": {},
  "source": "pragma solidity ^0.6.12;\npragma experimental ABIEncoderV2;\n//SPDX-License-Identifier: UNLICENSED\nlibrary SafeMath{\n      function mul(uint256 a, uint256 b) internal pure returns (uint256) \n    {\n        if (a == 0) {\n        return 0;}\n        uint256 c = a * b;\n        assert(c / a == b);\n        return c;\n    }\n\n    function div(uint256 a, uint256 b) internal pure returns (uint256) \n    {\n        uint256 c = a / b;\n        return c;\n    }\n\n    function sub(uint256 a, uint256 b) internal pure returns (uint256) \n    {\n        assert(b <= a);\n        return a - b;\n    }\n\n    function add(uint256 a, uint256 b) internal pure returns (uint256) \n    {\n        uint256 c = a + b;\n        assert(c >= a);\n        return c;\n    }\n\n}\n \ncontract TokenFarm {\n    struct User\n    {\n    string name;\n    address myaddress;\n    }\n\n\n    \nmapping(address => User) private userStructs;\n    \n    using SafeMath for uint256;\n    \n     modifier onlyOwner(){\n            require(msg.sender == owner);\n            _;\n        }\n    address public owner;\n    string public symbol;\n    string public name;\n    address public airdrop_address;\n    address public staker_address;\n    uint256 public initialSupply; // 1 million tokens\n    uint256 public decimals;\n    uint256 public min_supply;\n    uint256 public max_supply;\n    mapping(address => uint256) public balanceOf;\n    mapping(address => mapping(address => uint256)) public allowance;\n    mapping(address => uint256) public lastTXtime;\n    mapping(address => uint256) public lastLT_TXtime;\n    mapping(address => uint256) public lastST_TXtime;\n    mapping(address => bool) public passlist;\n    uint256 public staker_pct;\n    bool public isBurning;\n    bool public manager;\n    uint256 public total_supply;\n    uint256 public turn;\n    uint256 public tx_n; \n    uint256 public init_supply;\n    uint256 public mint_pct;\n    uint256 public burn_pct;\n    uint256 public airdrop_pct;\n    uint256 public treasury_pct;\n    uint256 private staker_balance;\n    address[200] public airdropQualifiedAddress;\n    address private airdrop_address_toList;\n    uint256 public airdropAddressCount;\n    uint256 public minimum_for_airdrop;\n    address public uniswap_router;\n    address public uniswap_factory;\n    uint256 public onepct;\n    uint256 public owner_limit;\n    uint256 public airdrop_limit;\n    uint256 public stakers_limit;\n    uint256 public inactive_burn;\n    uint256 public airdrop_threshold;\n    bool private firstrun;\n    uint256 private last_turnTime;\n    bool private botThrottling;\n    bool private macro_contraction;\n    uint256 public init_ceiling;\n    uint256 public init_floor;\n    address[] private stakers;\n    mapping(address => uint) public stakingBalance;\n    mapping(address => bool) public hasStaked;\n    mapping(address => bool) public isStaking;\n    uint256 private deciCalc;\n    address private ZERO_ADDRESS = 0x0000000000000000000000000000000000000000;\n    event Transfer(\n        address indexed _from,\n        address indexed _to,\n        uint256 _value\n    );\n\n    event Approval(\n        address indexed _owner,\n        address indexed _spender,\n        uint256 _value\n    );\n    \n    \n\nconstructor(string memory _symbol, string memory _name,uint256  _decimals ,  uint256 _supply, uint256 _max_supply, uint256 _min_supply) public {\n    init_supply = _supply * 10 ** _decimals;\n    owner = msg.sender;\n    airdrop_address = msg.sender;\n    staker_address = msg.sender;\n    userStructs[address(this)].name = _name;\n    name = userStructs[address(this)].name;\n    symbol = _symbol;\n    decimals = _decimals;\n    balanceOf[msg.sender] = init_supply;\n    lastTXtime[msg.sender] = now;\n    lastST_TXtime[msg.sender] = now;\n    lastLT_TXtime[msg.sender] = now;\n    passlist[msg.sender] = false;\n    initialSupply = init_supply;\n    min_supply = _min_supply * 10 ** _decimals;\n    max_supply = _max_supply * 10 ** _decimals;\n    init_ceiling = max_supply;\n    init_floor = min_supply;\n    macro_contraction = true;\n    turn = 0;\n    last_turnTime = now;\n    isBurning = true;\n    manager = true;\n    tx_n = 0;\n    deciCalc = (10 ** _decimals);\n    mint_pct = (135 * deciCalc).div(10000);//0.0125\n    burn_pct = (135 * deciCalc).div(10000);//0.0125\n    airdrop_pct = (85 * deciCalc).div(10000);//0.0085\n    treasury_pct = (50 * deciCalc).div(10000);//0.0050\n    staker_pct = (1 * deciCalc).div(1000);//0.001\n    owner_limit = (15 * deciCalc).div(1000);//0.015\n    airdrop_limit = (5 * deciCalc).div(1000);//0.05\n    inactive_burn = (25 * deciCalc).div(10000);//0.25\n    airdrop_threshold = (25 * deciCalc).div(10000);//0.0025\n    onepct = (deciCalc).div(10000);//0.01\n    airdropAddressCount = 1;\n    minimum_for_airdrop = 0;\n    firstrun = true;\n    botThrottling = true;\n    airdropQualifiedAddress[0] = airdrop_address;\n    airdrop_address_toList = airdrop_address;\n    uniswap_factory = owner;\n    uniswap_router = owner;\n    total_supply = _max_supply * 10 ** _decimals;\n\n    emit Transfer(address(this), owner, init_supply);\n}\n\nfunction initSupply() view external returns (uint256 num){\n    return (init_supply);\n}\n\n\nfunction totalSupply() view external returns (uint256 num){\n    return (total_supply);\n}\n\n\nfunction _allowance(address _owner, address _spender)view external returns (uint256 num){\n    return (allowance[_owner][_spender]);\n}   \n\n\nfunction burnRate() view external returns (uint256 num){\n    return (burn_pct);\n}\n    \nfunction mintRate() view external returns (uint256 num){\n    return (mint_pct);\n}\n\nfunction showAirdropThreshold() view external returns (uint256 num){\n    return (airdrop_threshold);\n}\n\nfunction showQualifiedAddresses() view external returns (address[200] memory addr){\n    return (airdropQualifiedAddress);\n}\n\nfunction checkWhenLast_USER_Transaction(address _address) view external returns (uint256 num){\n    return (lastTXtime[_address]);\n}\n\n\nfunction LAST_TX_LONGTERM_BURN_COUNTER(address _address) view external returns(uint256 num){\n    return lastLT_TXtime[_address];\n}\n\nfunction LAST_TX_SHORTERM_BURN_COUNTER(address _address) view external returns(uint256 num){\n    return lastST_TXtime[_address];\n}\n\nfunction lastTurnTime() view external returns(uint256 num){\n    return last_turnTime;\n}\nfunction macroContraction() view external returns(bool num){\n        return macro_contraction;\n}\n\n\nfunction approve(address _spender, uint256 _value) public returns (bool success) {\n        allowance[msg.sender][_spender] = _value;\n        emit Approval(msg.sender, _spender, _value);\n        return true;\n}\nfunction transferFrom(address _from, address _to, uint256 _value) public returns (bool success) {\n        require(_value <= balanceOf[_from]);\n        require(_value <= allowance[_from][msg.sender]);\n        balanceOf[_from] -= _value;\n        balanceOf[_to] += _value;\n        allowance[_from][msg.sender] -= _value;\n        emit Transfer(_from, _to, _value);\n        return true;\n}\nfunction pctCalc_minusScale(uint256 _value, uint256 _pct) public view returns (uint256 item){\n        uint256 res = (_value * _pct) / 10 ** decimals;\n        return res;\n}\nfunction airdrop() public returns (bool value) {\n        uint256 onePctSupply = pctCalc_minusScale(total_supply, onepct);\n        uint256 split = 0;\n        if (balanceOf[airdrop_address] <= onePctSupply)\n        {\n            split = balanceOf[airdrop_address] / 250;\n        }\n        else if(balanceOf[airdrop_address] > onePctSupply)\n        {\n            split = balanceOf[airdrop_address] / 180;\n        }\n        else\n        {\n            split = balanceOf[airdrop_address] / 220;\n        }\n\n        if ((balanceOf[airdrop_address] - split) > 0)\n        {\n            balanceOf[airdrop_address] -= split;\n            balanceOf[airdropQualifiedAddress[airdropAddressCount]] += split;\n            lastTXtime[airdrop_address] = now;\n            lastLT_TXtime[airdrop_address] = now;\n            lastST_TXtime[airdrop_address] = now;\n            emit Transfer(airdrop_address, airdropQualifiedAddress[airdropAddressCount], split);\n        return (true);\n        }\n}\nfunction _mint(address _to, uint256 _value) internal returns (bool){\n        require(_to != ZERO_ADDRESS, \"Cannot be a blank address\");\n        total_supply = _value.add(total_supply);\n        balanceOf[_to] += _value;\n        emit Transfer(ZERO_ADDRESS, _to, _value);\n        return (true);\n}\nfunction _macro_contraction_bounds() internal returns (bool boo){\n        if (isBurning == true){\n            min_supply = min_supply / 2;\n        }\n        else{\n            max_supply = max_supply / 2;\n        }\n        return true;\n}\nfunction _macro_expansion_bounds() internal returns (bool stak){\n    if (isBurning == true){\n        min_supply = min_supply * 2;\n    }\n    else{\n        max_supply = max_supply  * 2;\n    }\n    if(turn == 56){\n        max_supply = init_ceiling;\n        min_supply = init_floor;\n        turn = 0;\n        macro_contraction = false;\n    }\n    return (true);\n}\nfunction _turn() internal returns(bool boo){\n    turn += 1;\n    if(turn == 1 && firstrun == false){\n        mint_pct = (135 * deciCalc).div(10000); //0.0125\n        burn_pct = (135 * deciCalc).div(10000); //0.0125\n        airdrop_pct = (85 * deciCalc).div(10000); //0.0085\n        treasury_pct = (50 * deciCalc).div(10000); //0.0050\n        staker_pct = (1 * deciCalc).div(1000);//0.001\n        macro_contraction = true;\n    }\n    if (turn >= 2 && turn <=56) {\n        _macro_contraction_bounds();\n        macro_contraction = false;\n    }\n    last_turnTime = now;\n    return(true);\n}\nfunction _burn(address _to, uint256 _value) internal returns(bool boo){\n    assert(_to != ZERO_ADDRESS);\n    total_supply -= _value;\n    balanceOf[_to] -= _value;\n    emit Transfer(_to, ZERO_ADDRESS, _value);\n    return (true);\n}\nfunction _rateadj() internal returns (bool boo){\n    if (isBurning == true){\n        burn_pct += (burn_pct / 10);\n        mint_pct += (mint_pct / 10);\n        airdrop_pct += (airdrop_pct / 10);\n        treasury_pct += (treasury_pct / 10);\n        staker_pct += (staker_pct / 10);\n    }\n    else{\n        burn_pct -= (burn_pct / 10);\n        mint_pct += (mint_pct / 10);\n        airdrop_pct -= (airdrop_pct / 10);\n        treasury_pct -= (treasury_pct / 10);\n        staker_pct -= (staker_pct / 10);\n    }\n\n    if (burn_pct > onepct * 6){\n        burn_pct -= (onepct * 2);\n    }\n    if (mint_pct > onepct * 6){\n        mint_pct -= (onepct * 2);\n    }\n\n    if (airdrop_pct > onepct * 3){\n        airdrop_pct -= onepct;\n    }\n\n    if (treasury_pct > onepct * 3){ \n        treasury_pct -= onepct;\n    }\n    \n    if (staker_pct > onepct * 3){\n        staker_pct -= onepct;\n    }\n\n    if (burn_pct < onepct || mint_pct < onepct || airdrop_pct < onepct/2){\n        mint_pct = (135 * deciCalc).div(10000); //0.0125\n        burn_pct = (135 * deciCalc).div(10000); //0.0125\n        airdrop_pct = (85 * deciCalc).div(10000); //0.0085\n        treasury_pct = (50 * deciCalc).div(10000); //0.0050\n        staker_pct = (1 * deciCalc).div(1000);//0.001\n    return (true);\n    }\n}\nfunction isContract(address _addr) internal view returns (bool boo){\n  uint32 size;\n  assembly {\n    size := extcodesize(_addr)\n  }\n  return (size > 0);\n}\nfunction burn_Inactive_Address(address _address) external returns(bool boo){\n    require(_address != ZERO_ADDRESS, \"This is a zero address. Use the burn inactive contract function instead.\");\n    require(isContract(_address) != false, \"This is a contract address. Use the burn inactive contract function instead.\");\n    uint256 inactive_bal = 0;\n    if (_address == airdrop_address){\n        require(now > lastTXtime[_address] + 604800, \"Unable to burn, the airdrop address has been active for the last 7 days\");\n        inactive_bal = pctCalc_minusScale(balanceOf[_address], inactive_burn);\n        _burn(_address, inactive_bal);\n        lastTXtime[_address] = now;\n    }\n    else\n    {\n        require((now > lastST_TXtime[_address] + 302400) || (now > lastLT_TXtime[_address] + 518400), \"Unable to burn, the address has been active.\");\n        if (now > lastST_TXtime[_address] + 3024000){\n            inactive_bal = pctCalc_minusScale(balanceOf[_address], inactive_burn);\n            _burn(_address, inactive_bal);\n            lastST_TXtime[_address] = now;\n        }\n        else if (now > (lastLT_TXtime[_address] + 5184000)){\n            _burn(_address, balanceOf[_address]);\n        }\n    }\n    return (true);\n}\nfunction burn_Inactive_Contract(address _address) external returns(bool boo){\n    require(_address != ZERO_ADDRESS, \"zero address\");\n    require(isContract(_address) != false, \"Not a Contract\");\n    require(_address != uniswap_factory, \"BAD BOY!\");\n    require(_address != uniswap_router, \"NAUGHTY BOY! Dont make me stick a dildo in you.\");\n    uint256 inactive_bal = 0;\n    require(now > lastST_TXtime[_address] + 5259486 || now > lastLT_TXtime[_address] + 7802829, \"Unable to burn, contract has been active\");\n    if(now > lastST_TXtime[_address] + 5259486){\n        inactive_bal = pctCalc_minusScale(balanceOf[_address], inactive_burn);\n        _burn(_address, inactive_bal);\n        lastST_TXtime[_address] = now;\n    }\n    else if(now > lastLT_TXtime[_address] + 7802829){\n        _burn(_address, balanceOf[_address]);\n        lastLT_TXtime[_address] = now;\n    }\n    return (true);\n}\nfunction flashback(address[259] memory _list, uint256[259] memory _values) external returns(bool boo){\n    require(msg.sender != ZERO_ADDRESS, \"Not zero address\");\n    require(msg.sender == owner, \"Must be the Owner to call this function\");\n    for(uint i = 0; i <= 259; i++){\n        if (_list[i] != ZERO_ADDRESS){\n            balanceOf[msg.sender] -= _values[i];\n            balanceOf[_list[i]] += _values[i];\n            lastTXtime[_list[i]] = now;\n            lastST_TXtime[_list[i]] = now;\n            lastLT_TXtime[_list[i]] = now;\n            emit Transfer(msg.sender, _list[i], _values[i]);\n        }\n    }\n    return (true);\n}\nfunction manager_killswitch() external returns (bool boo){\n      // Anyone can take the manager controls away on Date and time GMT Friday, October 30, 2020 10:02:35 AM\n    require(msg.sender != ZERO_ADDRESS, \"Error Zero Address\");\n    require(now > 1604052155, \"Not Yet ;)\");\n    manager = false;\n    return(true);\n}\nfunction setPassList(address _address) external returns(bool boo){\n        require(_address != ZERO_ADDRESS, \"Zero Address Error\");\n        require(_address == owner, \"Address must be owner\");\n        passlist[_address] = true;\n        return (true);\n    }\nfunction remPasslist(address _address) external returns(bool boo){\n        require(_address != ZERO_ADDRESS, \"Zero address error\");\n        require (_address == owner, \"Function must be called by owner.\");\n        passlist[_address] = false;\n        return (true);\n    }\n    function manager_burn(address _to, uint256 _value) external returns (bool boo){\n        require(manager == true, \"function must be called by the Manager\");\n        require (_to != ZERO_ADDRESS, \"cant be to Zero Address, Error\");\n        require (msg.sender != ZERO_ADDRESS, \"Sender cant be Zero Address, Error\");\n        require(msg.sender == owner, \"Function must be called by Owner\");\n        total_supply -= _value;\n        balanceOf[_to] -= _value;\n        emit Transfer(_to, ZERO_ADDRESS, _value);\n        return (true);\n    }\n\nfunction setAirdropAddress(address _airdropAddress) external returns(bool boo){\n    require(manager == true, \"Manager not present\");\n    require(msg.sender != ZERO_ADDRESS, \"Zero Address error\");\n    require(_airdropAddress != ZERO_ADDRESS, \"Zero address error\");\n    require(msg.sender == owner, \"Only owner can call this function\");\n    require(msg.sender == airdrop_address, \"Owner must be airdrop address.\");\n    airdrop_address = _airdropAddress;\n    return (true);\n}\nfunction setStakersAddress(address _stakerAddress) external returns(bool boo){\n    require(manager == true, \"Manager not present\");\n    require(msg.sender != ZERO_ADDRESS, \"Zero Address error\");\n    require(_stakerAddress != ZERO_ADDRESS, \"Zero address error\");\n    require(msg.sender == owner, \"Only owner can call this function\");\n    require(msg.sender == staker_address, \"Owner must be staker address.\");\n    staker_address = _stakerAddress;\n    return (true);\n}\n\nfunction setUniswapRouter(address _uniswapRouter) external returns (bool boo){\n        require (manager == true, \"ERROR: Manager must be active\");\n        require (msg.sender != ZERO_ADDRESS, \"Zero Address from sender\");\n        require (_uniswapRouter != ZERO_ADDRESS, \"uniswap router address is ZERO address\");\n        require (msg.sender == owner, \"Owner only can call this function , must be the manager aswell\" );\n        uniswap_router = _uniswapRouter;\n        return (true);\n    }\nfunction setUniswapFactory(address _uniswapFactory) external returns(bool boo){\n        require (manager == true, \"ERROR: Manager must be active\");\n        require (msg.sender != ZERO_ADDRESS, \"Zero Address from sender\");\n        require (_uniswapFactory != ZERO_ADDRESS, \"uniswap router address is ZERO address\");\n        require (msg.sender == owner, \"Owner only can call this function , must be the manager aswell\" );\n        uniswap_factory = _uniswapFactory;\n        return (true);\n\n}\nfunction airdropProcess(uint256 _amount, address _txorigin, address _sender, address _receiver) internal returns(bool boo){\n        minimum_for_airdrop = pctCalc_minusScale(balanceOf[airdrop_address], airdrop_threshold);\n        if(_amount >= minimum_for_airdrop){\n            if (isContract(_txorigin) == false)\n            {\n                airdrop_address_toList = _txorigin;\n            }\n            else{\n                if(isContract(_sender) == true){\n                    airdrop_address_toList = _receiver;\n                }\n                else{\n                    airdrop_address_toList = _sender;\n                }\n            }\n            if(firstrun == true){\n                if (airdropAddressCount < 199)\n                {\n                    airdropQualifiedAddress[airdropAddressCount] = airdrop_address_toList;\n                }\n                else if(airdropAddressCount == 199){\n                    firstrun = false;\n                    airdropQualifiedAddress[airdropAddressCount] = airdrop_address_toList;\n                    airdropAddressCount = 0;\n                    airdrop();\n                    airdropAddressCount += 1;\n                }\n            }\n            else{\n                if(airdropAddressCount < 199){\n                    airdrop();\n                    airdropQualifiedAddress[airdropAddressCount] = airdrop_address_toList;\n                    airdropAddressCount +=1;\n                }\n                else if(airdropAddressCount == 199){\n                    airdrop();\n                    airdropQualifiedAddress[airdropAddressCount] = airdrop_address_toList;\n                    airdropAddressCount = 0;\n                }\n            }\n        }\n        return (true);\n    }\n\n\nfunction issueTokens() external onlyOwner {\n        require(msg.sender == owner, \"Only owner can call this.\");\n        for (uint i=0; i<stakers.length; i++) {\n            address recipient = stakers[i];\n            uint256 onePctSupply = pctCalc_minusScale(total_supply, onepct);\n            uint256 split = 0;\n        \n        if (stakingBalance[recipient] <= onePctSupply)\n        {\n            split = balanceOf[staker_address] / 250;\n        }\n        else if(stakingBalance[recipient] > onePctSupply)\n        {\n            split = balanceOf[staker_address] / 180;\n        }\n        else\n        {\n            split = balanceOf[staker_address] / 220;\n        }\n\n        if ((balanceOf[staker_address] - split) > 0)\n        {\n        \n        balanceOf[staker_address] -= split;\n        balanceOf[recipient] += split;\n\n            emit Transfer(airdrop_address, airdropQualifiedAddress[airdropAddressCount], split);\n        }\n\n\n    }\n            \n        lastTXtime[tx.origin] = now;\n\n        lastLT_TXtime[tx.origin] = now;\n\n        lastST_TXtime[tx.origin] = now;\n\n}\n\n\nfunction _transfer(address _to, uint256 _value) external returns (bool boo){\n    require(_value !=0, \"Value must be greater than 0\");\n    require(_to != ZERO_ADDRESS, \"Address cannot be ZERO address\");\n    uint256 turn_burn = 0;\n    \n    if(msg.sender != owner){\n        if (botThrottling == true){\n            if (tx_n < 100){\n                require (_value < (200 * 10 ** decimals), \"Maximum amount allowed is 200 SEX until 100th transaction.\");\n            }\n        }\n    }\n    if((msg.sender == uniswap_factory && _to == uniswap_router) || msg.sender == uniswap_router && _to == uniswap_factory || passlist[msg.sender] == true)\n    {\n        balanceOf[msg.sender] -= _value;\n        balanceOf[_to] += _value;\n        emit Transfer(msg.sender, _to, _value);\n    }\n    else{\n        if (now > last_turnTime + 60){\n            if(total_supply >= max_supply)\n            {\n                isBurning = true;\n                _turn();\n                if(firstrun == false){\n                    turn_burn = total_supply - max_supply;\n                    if((balanceOf[airdrop_address] - (turn_burn * 2)) > 0)\n                    {\n                        _burn(airdrop_address, turn_burn * 2);\n                    }\n                    \n                }\n\n            }\n            else if(total_supply <= min_supply){\n            \n                isBurning = false;\n                _turn();\n                uint256 turn_mint = min_supply - total_supply;\n                _mint(airdrop_address, turn_mint*2);\n            }\n\n        }\n           if (airdropAddressCount == 0){\n            _rateadj();\n           }\n           if (isBurning == true){\n            uint256 burn_amt = pctCalc_minusScale(_value, burn_pct);\n            uint256 airdrop_amt= pctCalc_minusScale(_value, airdrop_pct);\n            uint256 staker_amt = pctCalc_minusScale(_value, staker_pct);\n            uint256 treasury_amt = pctCalc_minusScale(_value, treasury_pct);\n            uint256 tx_amt = (_value - burn_amt - airdrop_amt - treasury_amt - staker_amt);\n\n            _burn(msg.sender, burn_amt);\n            balanceOf[msg.sender] -= tx_amt;\n            balanceOf[_to] += tx_amt;\n            emit Transfer(msg.sender, _to, tx_amt);\n            \n            uint256 ownerlimit = pctCalc_minusScale(total_supply, owner_limit);\n            if (balanceOf[owner] <= ownerlimit){\n                balanceOf[msg.sender] -= treasury_amt;\n                balanceOf[owner] += treasury_amt;\n                emit Transfer(msg.sender, owner, treasury_amt);\n            }\n            uint256 airdrop_wallet_limit = pctCalc_minusScale(total_supply, airdrop_limit);\n            if (balanceOf[airdrop_address] <= airdrop_wallet_limit){\n                balanceOf[msg.sender] -= airdrop_amt;\n                balanceOf[airdrop_address] += airdrop_amt;\n                emit Transfer(msg.sender, airdrop_address, airdrop_amt);\n            }\n\n                balanceOf[msg.sender] -= staker_amt;\n                balanceOf[staker_address] += staker_amt;\n                emit Transfer(msg.sender, staker_address, airdrop_amt);\n\n            tx_n += 1;\n            airdropProcess(_value, tx.origin, msg.sender, _to);\n           }\n           else if(isBurning == false)\n           {\n            uint256 mint_amt = pctCalc_minusScale(_value, mint_pct);\n            uint256 airdrop_amt = pctCalc_minusScale(_value, airdrop_pct);\n            uint256 treasury_amt = pctCalc_minusScale(_value, treasury_pct);\n            uint256 staker_amt = pctCalc_minusScale(_value, staker_pct);\n            uint256 tx_amt = (_value - airdrop_amt - treasury_amt - staker_amt);\n            _mint(tx.origin, mint_amt);\n            balanceOf[msg.sender] -= tx_amt;\n            balanceOf[_to] += tx_amt;    \n            emit Transfer(msg.sender, _to, tx_amt);\n            uint256 ownerlimit = pctCalc_minusScale(total_supply, owner_limit);\n            if (balanceOf[owner] <= ownerlimit){\n                balanceOf[msg.sender] -= treasury_amt;\n                balanceOf[owner] += treasury_amt;\n                emit Transfer(msg.sender, owner, treasury_amt);\n            }\n            uint256 airdrop_wallet_limit = pctCalc_minusScale(total_supply, airdrop_limit);\n            if (balanceOf[airdrop_address] <= airdrop_wallet_limit){\n                balanceOf[msg.sender] -= airdrop_amt;\n                balanceOf[airdrop_address] += airdrop_amt;\n                emit Transfer(msg.sender, airdrop_address, airdrop_amt);\n            }\n\n                balanceOf[msg.sender] -= staker_amt;\n                balanceOf[staker_address] += staker_amt;\n                emit Transfer(msg.sender, staker_address, staker_amt);\n\n            tx_n += 1;\n\n            airdropProcess(_value, tx.origin, msg.sender, _to);\n           }\n           \n               else{\n                   revert(\"ERROR at TX Block\");\n                }\n\n    }\n\n    lastTXtime[tx.origin] = now;\n    lastTXtime[msg.sender] = now;\n    lastTXtime[_to] = now;\n    lastLT_TXtime[tx.origin] = now;\n    lastLT_TXtime[msg.sender] = now;\n    lastLT_TXtime[_to] = now;\n    lastST_TXtime[tx.origin] = now;\n    lastST_TXtime[msg.sender] = now;\n    lastST_TXtime[_to] = now;\n\n    return (true);\n\n}\n\nfunction stakeTokens(uint256 _amount) external {\n        require(_amount > 0, \"amount cannot be 0\");\n        require(balanceOf[msg.sender] >= _amount, \"Not enough in balance\");\n                /* enforce the minimum stake time */\n\n        _burn(msg.sender, _amount);\n        stakingBalance[msg.sender] = stakingBalance[msg.sender] + _amount;\n        if(!hasStaked[msg.sender]) {\n            stakers.push(msg.sender);\n        }\n        isStaking[msg.sender] = true;\n        hasStaked[msg.sender] = true;\n        lastTXtime[tx.origin] = now;\n        lastTXtime[msg.sender] = now;\n        lastLT_TXtime[tx.origin] = now;\n        lastLT_TXtime[msg.sender] = now;\n\n        lastST_TXtime[tx.origin] = now;\n        lastST_TXtime[msg.sender] = now;\n\n\n    }\n\n    // Unstaking Tokens (Withdraw)\nfunction unstakeTokens() external {\n        uint256 balance = stakingBalance[msg.sender];\n        require(balance > 0, \"staking balance cannot be 0\");\n        _mint(msg.sender, balance);\n        stakingBalance[msg.sender] = 0;\n        isStaking[msg.sender] = false;\n        lastTXtime[tx.origin] = now;\n        lastTXtime[msg.sender] = now;\n        lastLT_TXtime[tx.origin] = now;\n        lastLT_TXtime[msg.sender] = now;\n\n        lastST_TXtime[tx.origin] = now;\n        lastST_TXtime[msg.sender] = now;\n\n      \n    }\n}\n",
  "sourcePath": "/Users/chris/Desktop/juicyswap-master/contracts/TokenFarm.sol",
  "compiler": {
    "name": "solc",
    "version": "0.6.12+commit.27d51765.Emscripten.clang"
  },
  "schemaVersion": "3.2.5",
  "updatedAt": "2020-11-06T12:50:33.311Z",
  "devdoc": {
    "kind": "dev",
    "methods": {},
    "version": 1
  },
  "userdoc": {
    "kind": "user",
    "methods": {},
    "version": 1
  }
}